:020000040800F2
:10000000D81100207D020008C3180008BB170008A3
:10001000C1180008B5030008DD2100080000000039
:100020000000000000000000000000009D0100082A
:10003000B703000800000000F9010008CD1B00080C
:10004000970200089702000897020008970200082C
:10005000970200089702000897020008970200081C
:10006000970200089702000897020008970200080C
:1000700097020008970200089702000897020008FC
:1000800097020008970200089702000897020008EC
:1000900097020008970200089702000897020008DC
:1000A00097020008A91C00089702000897020008A0
:1000B00097020008970200089702000897020008BC
:1000C00097020008970200089702000897020008AC
:1000D00097020008D1210008970200089702000843
:1000E000B903000897020008970200089702000869
:1000F000970200089702000897020008970200087C
:10010000970200089702000897020008970200086B
:10011000970200089702000897020008970200085B
:10012000970200089702000897020008970200084B
:10013000970200089702000897020008970200083B
:1001400097020008970200089702000800000000CC
:10015000970200089702000897020008970200081B
:10016000970200089702000897020008970200080B
:10017000970200089702000800000000000000003D
:100180009702000897020008DFF80CD000F000F991
:10019000004800470D250008D81100202C4B196895
:1001A000086800F05AB880F30988BFF36F8F4FF0EA
:1001B000000080F3118870470000000008480068C4
:1001C000006880F308884FF0000080F3148862B65E
:1001D00061B6BFF34F8FBFF36F8F00DF00BF00BF6B
:1001E00008ED00E0DFF80C00016841F470010160E7
:1001F000704700BF88ED00E0EFF30980BFF36F8F19
:10020000134B1A681EF0100F08BF20ED108A20E96A
:10021000F04F106009B44FF0500080F31188BFF325
:100220004F8FBFF36F8F02F0E9FC4FF0000080F3B7
:10023000118809BC1968086800F014B81EF0100F86
:1002400008BF00F014B880F30988BFF36F8F7047C0
:1002500014000020EFF30580704730C8B0E8C04FAD
:10026000FFF7A1BF30C8B0E8C04FFFF7E7BFB0EC61
:10027000088AB0EC08CAFFF7E6BF000006488047CE
:1002800006480047FEE7FEE7FEE7FEE7FEE7FEE77B
:10029000FEE7FEE7FEE7FEE7651C000889010008AF
:1002A0002DE9F05F0546002092469B4688460646AB
:1002B000814640241BE0284641464746224600F03E
:1002C00056F853465A46C01A914110D31146184663
:1002D000224600F03DF82D1A67EB01084F462246F2
:1002E0000120002100F034F817EB00094E41201ED8
:1002F000A4F10104DFDC484631462A46434600F0BB
:1003000000B830BCBDE8C09F40EA01039B0703D0A2
:1003100009E008C9121F08C0042AFAD203E011F844
:10032000013B00F8013B521EF9D27047D2B201E006
:1003300000F8012B491EFBD270470022F6E710B5EA
:1003400013460A4604461946FFF7F0FF204610BD43
:10035000202A04DB203A00FA02F100207047914085
:10036000C2F1200320FA03F3194390407047202A7A
:1003700004DB203A21FA02F00021704721FA02F34F
:10038000D040C2F120029140084319467047000056
:10039000064C074D06E0E06840F0010394E80700D2
:1003A00098471034AC42F6D3FFF7F2FEF82F00085E
:1003B00018300008FEE7704710B54FF4806000F079
:1003C00093F84FF4006000F08FF84FF4805000F085
:1003D0008BF8BDE810404FF4005000F085B870472E
:1003E00010B590F825100024022903D00421C16320
:1003F00001241AE001680A6822F00E020A6001680E
:100400000A6822F001020A6090F84410036C01F0BF
:100410001C02012101FA02F25A6080F82510002125
:1004200080F82410816B01B18847204610BD70B55B
:10043000044600F04FF90546601C00D0641C00F033
:1004400049F9401BA042FAD370BD000010B5044624
:10045000014612A001F0C4FE0A20FFF7E8FF214682
:10046000104800F032F9012816D1B4F5806F0DD094
:10047000B4F5006F0CD0B4F5805F0BD0B4F5005F1D
:100480000AD109A0BDE8104001F0AABE0AA0F9E710
:100490000DA0F7E710A0F5E710BD00000D0A252319
:1004A000780D0A00000C00484750494F5F50494EF4
:1004B0005F31330D0A0000004750494F5F50494EED
:1004C0005F31300D0A0000004750494F5F50494EE0
:1004D0005F31310D0A0000004750494F5F50494ECF
:1004E0005F31320D0A000000044910B50A6802426B
:1004F00002D00860FFF7AAFF10BD000014040140FD
:100500002DE9F84FDFF898B100234FF0010C4FF0C0
:10051000030A4FF00F090BF1040EB9E00CFA03F4D3
:10052000224070D04D68022D01D0122D0ED1DD0871
:1005300000EB8508D8F820505E07F70E09FA07F699
:10054000B5430E69BE402E43C8F8206007685E00C0
:1005500091F804800AFA06F508F00308AF4308FA98
:1005600006F848EA0708C0F800804F68012F05D058
:10057000022F03D0112F01D0122F13D1D0F80880F1
:10058000CF6828EA0508B74047EA08078760D0F82F
:1005900004800F7928EA0408C7F300179F4047EA50
:1005A00008074760D1F804806FEA0807BF0706D143
:1005B000C76AA743C8F3C0049C403C43C462C468F4
:1005C000AC438D68B5402543C5604C68E4005ED5FA
:1005D000344C256E45F001052566246E23F0030595
:1005E00004F001040094304C2E19B4689D072F0FBD
:1005F00009FA07F5AC43B0F1904F05D02B4DA84256
:1006000004D101251CE042E0002519E0284DA84254
:1006100001D1022514E0274DA84201D103250FE0A6
:10062000254DA84201D104250AE0244DA84201D15C
:10063000052505E0224DA84201D1062500E0072549
:10064000BD402543B560DBF800405D464E689443ED
:10065000F60300D514432C60DEF8004075464E6862
:100660009443B60300D514432C600D4D08352C6817
:100670004E689443F60200D514432C60084D0C35A7
:100680002C684E689443B60200D514432C605B1C62
:100690000A6832FA03F57FF441AF00F013B80000A6
:1006A0000004014000100240000001400004004826
:1006B00000080048000C00480010004800140048E2
:1006C0000018004818BCBDE8E08F0069084000D061
:1006D0000120704701480068704700000C000020AE
:1006E00002480168491C0160704700000C000020AE
:1006F00010B50024032000F08BF8002000F008F86B
:1007000008B1012401E000F03DF8204610BD0000D2
:1007100000B5014687B00022192000F059F81920D1
:1007200000F04AF81348016E41F400610166006E62
:1007300005A900F400600690684600F0FFFA00F09A
:100740002FFB0D490D4AB0FBF1F10D48491E026027
:10075000416040F2E7320021C0E90321816000F0EE
:10076000B8FD10B1012007B000BD054800F0CEFD76
:10077000F9E700000010024040420F00002C014049
:10078000F00000200B4882B0016E41F001010166CB
:10079000016E01F001010091816D41F08051816590
:1007A000806D002200F0805000900F21901E02B05A
:1007B00000F00EB80010024000F01F02012191402D
:1007C0004009800000F1E020C0F8001170470000EF
:1007D000F0B40E4B1B680C46C3F30223C3F10705AC
:1007E000042D00D90425191D072901D2002300E09A
:1007F000DB1E012606FA05F1491E214099409E4064
:10080000761E16403143F0BC01F05CB80CED00E000
:10081000064900F0070208684FF6FF03184040EA57
:100820000220034A10430860704700000CED00E00E
:100830000000FA051649B0F5007F0868C0F34120B2
:1008400009D0022805D0086820F4C06040F4806018
:100850000860002070470128FBD0086820F4C060C1
:1008600040F4007008600B483222006850430A4A86
:10087000B0FBF2F0401C00E0401E4A69520501D571
:100880000028F9D148694005E3D5032070470000EE
:10089000007000401000002040420F000248006835
:1008A00000F4C06070470000007000402DE9F84F70
:1008B000044600270088D74D3E46010504F1200B71
:1008C0001DD5606E78B1B0F5800F11D0B0F5000F76
:1008D00004D0B0F5400F22D001270FE0E86840F4C3
:1008E0008030E8601BE00021201D00F0FBFF03E0EA
:1008F0000021584601F08CF8070010D03E462088B1
:10090000C00426D5A06EC0B1B0F1807F1AD0B0F17E
:10091000007F0DD0B0F1407F19D0012718E0D5F845
:100920008800616E20F440000843C5F88800E6E7BF
:10093000E86840F48030E86009E00021201D00F004
:10094000D1FF03E00021584601F062F80746F7B1F5
:100950003E46206880033AD5A86D4FF00008C000DD
:1009600009D4A86D40F08050A865A86D4FF001082B
:1009700000F080500090DFF8A0A2DAF8001041F4F7
:100980008071CAF80010FFF7A5FE814610E0D5F887
:100990008800A16E20F040700843C5F88800D8E7B1
:1009A000FFF798FEA0EB0900022801D9032705E014
:1009B000DAF80000C005F3D5002F7CD04FEA070617
:1009C000B8F1000F03D0A86D20F08050A865207802
:1009D000C00707D0D5F88800A16B20F003000843BA
:1009E000C5F888002078800707D5D5F88800E16B26
:1009F00020F00C000843C5F888002078400707D590
:100A0000D5F88800216C20F030000843C5F8880034
:100A10002078000707D5D5F88800616C20F0C00069
:100A20000843C5F888002078C00607D5D5F88800A7
:100A3000A16C20F440700843C5F888002078800637
:100A400007D5D5F88800E16C20F440600843C5F86C
:100A500088002088800507D5D5F88800E16D20F44E
:100A600040200843C5F888002088400507D5D5F800
:100A70008800216E20F440100843C5F888002078D3
:100A8000400607D5D5F88800216D20F44050084372
:100A9000C5F888002078000607D5D5F88800616D74
:100AA00020F440400843C5F888002088C00509D5D7
:100AB000D5F8880000E01CE0A16D20F44030084328
:100AC000C5F8880020684FF0006700034FF0806889
:100AD0004FD5D5F88800E16E20F040600843C5F896
:100AE0008800E06EB8423CD1E86840F48010E860CD
:100AF0003FE0D5F8900010F4407015D0D4F8801085
:100B0000814211D0D5F89000D5F8901020F44070B3
:100B100041F48031C5F89010D5F8901021F480315F
:100B2000C5F89010C5F89000C00710D0FFF7D2FDAF
:100B3000074641F2883906E0FFF7CCFDC11B494565
:100B400001D903263CE7D5F890008007F4D5D5F805
:100B50009000D4F8801020F440700843C5F890004D
:100B60002EE7404505D10121201D00F0BBFE00B15C
:100B700006462068400317D5D5F88800216F20F07D
:100B800040600843C5F88800206FB84204D1E86887
:100B900040F48010E86007E0404505D10121201DA8
:100BA00000F0A0FE00B10646208840041AD5D5F812
:100BB0008800616F20F040500843C5F88800606FDE
:100BC000B0F1805F03D0B0F1005F05D00AE00221F0
:100BD000201D00F087FE03E00221584600F018FFB8
:100BE00000B106462088000407D5D5F88800A16F1B
:100BF00020F080400843C5F888002068C00306D56F
:100C000055F8880FE16F20F0004008432860304617
:100C100000F004B8001002400070004018BCBDE8AD
:100C2000E08F00002DE9F0470F46050058D03F4EF9
:100C3000306800F00700B84209D2306820F00700A1
:100C400038433060306800F00700B84248D1287857
:100C5000374CC0072CD06868032811D0022812D066
:100C6000216898B1490500293ADAA16821F0030109
:100C70000143A160FFF72EFD804641F2883910E064
:100C800021688901EFE721688903ECE78907EAE732
:100C9000FFF720FDA0EB0801494502D90320BDE87C
:100CA000F087A068696800F00C00B0EB810FEFD10D
:100CB0002878800705D5A068A96820F0F0000843CF
:100CC000A060306800F00700B8420BD9306820F00F
:100CD000070038433060306800F00700B84201D0A8
:100CE0000120DCE72878400705D5A068E96820F4F2
:100CF000E0600843A0602878000706D5A06829694D
:100D000020F4605040EAC100A06000F05BF8A168E8
:100D1000084AC1F30311515C01F01F01C8400649A4
:100D20000860BDE8F0470020FFF7F2BC0020024059
:100D3000001002408C2F0008100000200F220260DB
:100D40000C4A936803F003034360936803F0F003D5
:100D50008360936803F4E063C36092684FF4E063D8
:100D600003EAD20202610448006800F0070008604C
:100D7000704700000010024000200240054806496C
:100D800000688968054AC1F30221515C01F01F0126
:100D9000C84070471000002000100240CC2F00080F
:100DA0000548064900688968054AC1F3C221515CBB
:100DB00001F01F01C84070471000002000100240E1
:100DC000CC2F000870B52549002318468A68CC68E6
:100DD00012F00C0204F00306214C4FEA640509D01E
:100DE0000C2A05D0042A26D0082A00D1284670BD36
:100DF000012E10D10B681B0704D4D1F89430C3F333
:100E0000032302E00B68C3F30313164E56F8233096
:100E10007AB10C2AEBD1C86800F00302C868C0F3AD
:100E20000210401C022A08D0032A09D0B3FBF0F0BC
:100E300008E0184670BD204670BDB4FBF0F001E03C
:100E4000B5FBF0F0CA68C968C2F306225043C1F38B
:100E50004161491C4900B0FBF1F070BD0010024037
:100E60000024F4009C2F00082DE9F84305007CD0F5
:100E7000FD4CA06800F00C06E06800F0030728783D
:100E8000C00661D576B10C2E01D1012F0AD0A86918
:100E90000028206878D040F001002060FFF71AFC9D
:100EA000804659E02068800702D5A8690028DED076
:100EB000286A2168090703D5216801F0F00104E0E0
:100EC000D4F89410F02202EA1111884215D900F0EA
:100ED00023FE002849D1206840F0080020602068E7
:100EE000296A20F0F000084320606068E96920F476
:100EF0007F4040EA0120606015E0206840F0080073
:100F000020602068296A20F0F000084320606068B3
:100F1000E96920F47F4040EA01206060286A00F01F
:100F2000FBFD0028D6D1FFF74DFFA168CF4AC1F3E2
:100F30000311515C01F01F01C840CD490860002039
:100F4000FFF7E6FB00287DD12FE000BFFFF7C2FBD3
:100F5000A0EB0800022876D820688007F6D5206824
:100F600040F008002060206801E0BBE00CE0296A46
:100F700020F0F000084320606068E96920F47F40B9
:100F800040EA0120606010E020F001002060FFF7DF
:100F9000A1FB804606E000BFFFF79CFBA0EB08002A
:100FA0000228D8D820688007F6D42878C00740D017
:100FB000082E18D00C2E01D1032F14D06868B0F57C
:100FC000803F17D0B0F5A02F206817D020F48030D4
:100FD0002060206820F4802020606868E0B1FFF77E
:100FE00079FB804614E02068800322D568680028D9
:100FF00078D01EE0206840F48030EDE740F4802097
:101000002060F7E7FFF766FBA0EB08006428A2D892
:1010100020688003F6D50CE0FFF75CFB804605E016
:10102000FFF758FBA0EB0800642894D820688003E1
:10103000F6D4287880073BD5042E11D00C2E04D18D
:10104000022F01E036E1A1E00AD0E868002820681C
:101050001ED040F480702060FFF73CFB07460CE098
:10106000206840050CD5E8680028C1D008E000BF22
:10107000FFF730FBC01B022893D820684005F7D546
:101080006068297C20F0F85040EA016060600FE061
:1010900020F480702060FFF71DFB074605E000BFCD
:1010A000FFF718FBC01B022870D820684005F7D452
:1010B0002878000729D568690028D4F8940012D050
:1010C00040F00100C4F89400FFF704FB074604E079
:1010D000FFF700FBC01B022858D8D4F89400800703
:1010E000F6D512E0EDE020F00100C4F89400FFF71F
:1010F000F1FA074605E000BFFFF7ECFAC01B022833
:1011000044D8D4F894008007F6D42878400768D5EE
:10111000A06D0027C00008D4A06D40F08050A065ED
:10112000A06D012700F08050009052480168C90569
:1011300012D40168814641F480710160FFF7CAFA58
:10114000804605E0FFF7C6FAA0EB080002281DD88C
:10115000D9F80000C005F5D5A868012817D00528E2
:10116000D4F8900018D020F00100C4F89000D4F812
:10117000900020F0040000BFC4F89000A86841F27D
:101180008839D0B1FFF7A6FA804611E06BE0D4F8B9
:10119000900040F00100EFE740F00400C4F8900038
:1011A000F5E700BFFFF796FAA0EB080149455AD8CA
:1011B000D4F890008007F5D50EE0FFF78BFA804653
:1011C00006E000BFFFF786FAA0EB0801494570D89A
:1011D000D4F890008007F5D41FB1A06D20F08050A6
:1011E000A065A86AF0B30C2E6BD00228206820F00E
:1011F0008070206004D0206810F0205F47D04AE063
:10120000FFF768FA064604E0FFF764FA801B02283D
:101210004FD820688001F7D4286BE96A00011038A4
:101220000843696BAA6B0902120941EA424108436B
:10123000A98F114A490802EB4151084395F8401023
:101240004908120102EB41610843E060206840F068
:1012500080702060E06840F08070E060FFF73AFA4C
:10126000054610E02BE024E0001002408C2F00081F
:1012700010000020007000400000E0FFFFF72AFA95
:10128000401B022815D820688001F7D517E0E068D8
:1012900020F00300E060E0680B490840E060FFF7E1
:1012A00019FA054608E000BFFFF714FA401B0228B0
:1012B00002D90320BDE8F88320688001F4D400201F
:1012C000F8E70120F6E70000FFFFEEFE70477047E9
:1012D000704710B5040003D094F83D0010B107E04A
:1012E000012010BD002084F83C00204600F00CF8DE
:1012F000022084F83D00211D206800F0DBFC012065
:1013000084F83D00002010BD704700000168CA68E5
:1013100042F00102CA600068826807490A40062A52
:1013200008D082680A40B2F5803F03D0016841F0DE
:10133000010101600020704707000100704770B58F
:101340000446006801694FF00005C943890715D4B8
:10135000C168C943890711D4E91E016101202077C2
:10136000206880698007204602D0FFF7E7FF04E08D
:1013700000F0A7F8204600F0A5F82577206801695D
:10138000C943490717D4C168C943490713D46FF04B
:1013900004010161022020772068806910F4407FF9
:1013A000204602D0FFF7CAFF04E000F08AF820468A
:1013B00000F088F8257720680169C943090716D429
:1013C000C168C943090712D46FF008010161042004
:1013D00020772068C0698007204602D0FFF7AEFF63
:1013E00004E000F06EF8204600F06CF825772068E5
:1013F0000169C943C90617D4C168C943C90613D4D2
:101400006FF010010161082020772068C06910F496
:10141000407F204602D0FFF791FF04E000F051F832
:10142000204600F04FF8257720680169C943C907B5
:1014300008D1C168C943C90704D1891E016120468A
:1014400000F042F820680169C943090609D4C1685F
:10145000C943090605D46FF0800101612046FFF7FA
:1014600036FF20680169C943C90509D4C168C94369
:10147000090605D46FF4807101612046FFF726FF4D
:1014800020680169C943490609D4C168C9434906AE
:1014900005D46FF040010161204600F01FF820687C
:1014A0000169C94389060BD4C168C943890607D4B9
:1014B0006FF0200101612046BDE87040FFF708BFD2
:1014C00070BD70477047000000680349884201D131
:1014D000FFF706B970470000002C014070477047C5
:1014E000704700002DE9F04102680446D069116898
:1014F000936810F00F0F4FF000055BD003F001066A
:1015000001F49077374369D0C70707D0CF0505D5D9
:1015100001271762626F42F001026267820708D5F5
:10152000DA0706D0276802223A62626F42F00402AC
:101530006267420708D5DA0706D0236804221A62D8
:10154000626F42F00202626702070AD501F02002D0
:10155000324306D0236808221A62626F42F0080202
:101560006267626F002A32D0800605D5880603D5EF
:10157000216E09B120468847606F000703D42068B8
:101580008068400625D5204600F090FC20688168E0
:10159000490619D5816821F040018160E06E98B15B
:1015A00020498163E06EFEF71BFF00280FD0E06E3C
:1015B000816B06E0860611D58E060FD5216E1EE0E2
:1015C0002046BDE8F04108472046FFF789FFBDE807
:1015D000F0812046FFF784FF6567F8E7C60209D56A
:1015E0005B0207D54FF4801010622046BDE8F04141
:1015F000FFF775BF030605D50B0603D5616E0029FD
:10160000DED1E4E74006E2D54806E0D51168204681
:1016100021F040011160202184F87110656600F00E
:10162000CBF8D4E7991E000810B5040003D094F855
:10163000710010B107E0012010BD002084F8700097
:10164000204600F027F8242084F871002068016803
:1016500021F001010160204600F038FC0128EBD0A8
:10166000606A10B1204600F085FB2068416821F4D3
:10167000904141602068816821F02A0181602068E2
:10168000016841F0010101602046BDE8104000F012
:10169000D5BB000010B586B0044614216846FEF79D
:1016A0004CFE17492068884228D11648016E41F443
:1016B00080410166016E01F480410591C16C41F0E9
:1016C0000101C164C06C694600F0010005904FF44F
:1016D000C06000900220019000200290032003903F
:1016E000072004904FF09040FEF70AFF00220521EA
:1016F0002520FFF76DF82520FFF75EF806B010BD36
:1017000000380140001002402DE9F843044690F8EB
:1017100071001F4616460D4620284BD1C5B1BEB1FB
:1017200094F87000012845D0012084F870004FF033
:101730000008C4F87480212084F87100FEF7CAFF05
:10174000A4F850608146A4F852604FF4805615E02A
:101750000120BDE8F8838021204600F007FDD8B9BC
:10176000A068B04201D12069C0B115F8010B216811
:101770000885B4F85200401EA4F85200B4F8520094
:101780004B464FF0000200970028E4D14FF0400193
:10179000204600F0EBFC30B10320DAE735F8020B0D
:1017A000C0F30800E3E7202084F8710084F870801B
:1017B0000020CEE70220CCE77047FEE710B590B0DE
:1017C000142211496846FEF79FFD0021684600F08B
:1017D000CFFE0E4C0C4914222060143105A8FEF7F0
:1017E00093FD002105A800F0C3FE074960601422A4
:1017F00028310AA8FEF788FD00210AA800F0B8FEEB
:10180000A06010B010BD00003C2F000800000020B8
:1018100000B587B014216846FEF78FFD1648C16CED
:1018200041F08001C164C16C01F080010591C16C7F
:1018300041F00801C164C16C01F008010591C16C5F
:1018400041F00101C164C06C694600F001000590DF
:101850004FF4705000900948019001200290084810
:10186000FEF74EFE002201212820FEF7B1FF2820BE
:10187000FEF7A2FF07B000BD0010024000001110EB
:10188000000C00480D4810B50B4901604FF4612170
:101890004160002181600C22C160C0E904128161B5
:1018A000C16101624162FFF7BFFE002803D0BDE8BD
:1018B0001040FEF794BD10BD0038014078000020B4
:1018C000FEE770470907090E002806DA00F00F004E
:1018D00000F1E02080F8141D704700F1E02080F84E
:1018E000001470472DE9F041444C05468846E068F5
:1018F0000026810728680DD0E16801F003018142CC
:1019000016D1A8B1E0686968C0F30210401C884293
:101910000ED120E0012804D0022805D0032807D1E9
:1019200008E02168890701E021684905002907DBF3
:1019300001265FE02168890302D421684903F5E7A5
:10194000E1686A686FF00F0321F0730103EB021284
:1019500011430143E160206820F080602060FEF7C1
:10196000B9FE074605E000BFFEF7B4FEC01B022823
:1019700037D820680001F7D4B8F1000F18D0B8F1BB
:10198000010F1ED0287D4FF07E41400801EB4060E2
:10199000A96840EA01202169194A114008432061E1
:1019A000206840F080602060FEF794FE07461AE051
:1019B000A868E9680002090940EA41402169114A22
:1019C000EBE7288A1049400801EB4050A96840EA3B
:1019D000012021690D4AE0E7FEF77CFEC01B0228CA
:1019E00001D9032606E020680001F5D52069A96920
:1019F000084320613046BDE8F0810000001002403D
:101A0000FF80FFF9FF80FDFF0000E0FFFF809FFFE8
:101A10002DE9F0413D4C06468846E06800258107E7
:101A200030680DD0E16801F00301814216D1A8B100
:101A3000E0687168C0F30210401C88420ED120E0BB
:101A4000012804D0022805D0032807D108E0216826
:101A5000890701E021684905002907DB012551E0DC
:101A60002168890302D421684903F5E7E1687268B7
:101A70006FF00F0321F0730103EB021211430143D6
:101A8000E160206820F080502060FEF723FE0746CA
:101A900005E000BFFEF71EFEC01B022829D8206803
:101AA0008000F7D4B8F1000F15D0307C4FF07E41A4
:101AB000400801EB4060B16840EA01206169144AC6
:101AC000114008436061206840F080502060FEF7BC
:101AD00001FE07460FE0B068F1680002090940EA1C
:101AE000414061690B4AEBE7FEF7F4FDC01B022899
:101AF00001D9032506E020688000F5D56069716989
:101B0000084360612846BDE8F081000000100240F3
:101B1000FF80FFF9FF80FDFFF8B51C4D064600244D
:101B2000A86DC00002D5FEF7B9FE0DE0A86D40F02B
:101B30008050A865A86D00F080500090FEF7AEFEC2
:101B4000A96D21F08051A965B0F5007F04D0802EE9
:101B500007D94FF003040AE0802E08D9A02E01D83F
:101B600004E001D1022402E0702E00D101240848D3
:101B7000016821F0070121430160006800F00700BF
:101B8000A04201D00120F8BD0020F8BD00100240A5
:101B9000002002404FF4FA74054906A000F020FB33
:101BA0002046FEF744FC012000F0D6FCF4E70000DC
:101BB000782F00080D0A25730D0A0000012000F09F
:101BC000CBFCFBE7012000F0C7FCFBE710B5502081
:101BD00080F31188BFF34F8FBFF36F8F01F0E4F8EC
:101BE00018B104494FF080500860002080F311883C
:101BF00010BD000004ED00E030B5B7B0442121A8CD
:101C0000FEF79BFB142132A8FEF797FB8421684660
:101C1000FEF793FB01252804CDE921500A21CDE9E7
:101C20002D5102200324CDE92B040721CDE92F10EB
:101C3000319021A8FFF718F90F20CDE932040024D4
:101C400034943594022132A83694FEF7EBFF6846AF
:101C500000950E94FEF72AFE6802FEF7EBFD37B002
:101C600030BD00000D48016841F4700101600C486E
:101C7000016841F001010160002181600268094BA7
:101C80001A4002608214C260026822F4802202605C
:101C900081610249C00380390860704788ED00E027
:101CA00000100240FFFFF6EA0148FFF748BB0000C2
:101CB000F00000202DE9F0470268264B264D274E04
:101CC000274F284C4FF0804A984209D0504507D002
:101CD000A84205D0B04203D0B84201D0A04204D1FE
:101CE00022F0700C4A6842EA0C02DFF87CC0DFF890
:101CF0007C80DFF87C9098420FD050450DD0A842F0
:101D00000BD0B04209D0B84207D0A04205D0604500
:101D100003D0404501D0484503D122F44075CA683C
:101D20002A434D6922F080022A4302608A68C26217
:101D30000A688262984207D0A04205D0604503D06D
:101D4000404501D0484501D1096901630121416144
:101D5000BDE8F087002C014000040040000800406E
:101D6000000C0040003401400040014000440140AC
:101D70000048014090F82410C90706D001684A685D
:101D8000836A22F400321A434A6090F824108907CB
:101D900006D501684A68C36A22F480321A434A6051
:101DA00090F82410490706D501684A68036B22F4AD
:101DB00080221A434A6090F82410090706D501686A
:101DC0004A68436B22F400421A434A6090F8241098
:101DD000C90606D501688A68836B22F480521A43CB
:101DE0008A6090F82410890606D501688A68C36B5A
:101DF00022F400521A438A6090F82410490611D543
:101E000001684A68036C22F480121A434A60016C2C
:101E1000B1F5801F06D101684A68436C22F4C00204
:101E20001A434A6090F82410090606D501684A68EA
:101E3000806C22F4002202434A607047F8B5002605
:101E400004464667FEF746FC0546206800686FF0CA
:101E50007E47000708D52B4600224FF4001120468C
:101E6000009700F083F960B92068006840070AD540
:101E70002B4600224FF480012046009700F076F9AF
:101E800008B10320F8BD202084F8710084F87200A6
:101E900084F870600020F8BD10B5806A0021A0F8B9
:101EA0005A10A0F85210FFF71BFB10BD01680A681A
:101EB00022F490720A6001688A6822F001028A6046
:101EC000202180F872100021016670472DE9F04151
:101ED0000446016880682369E66918436369102530
:101EE000002733431843954A0B68954E334003430C
:101EF0000B6020684168E36821F440511943416058
:101F00002168A069914201D0236A18438B6823F4A9
:101F1000306303438B608B4B21688B4899420DD112
:101F2000D0F8880010F0030006D001285AD002280B
:101F300056D0032859D157E0012556E0834B9942EA
:101F40000BD1D0F8880010F00C0047D0042849D0FD
:101F5000082845D00C2848D146E07D4B99420BD14A
:101F6000D0F8880010F0300038D010283AD020285F
:101F700036D0302839D137E0764B99420BD1D0F8A2
:101F8000880010F0C00029D040282BD0802827D00E
:101F9000C0282AD128E0704B99420ED1D0F8880091
:101FA00010F440701AD0B0F5807F1BD0B0F5007FE0
:101FB00016D0B0F5407F18D116E0914215D1D0F877
:101FC000880010F4406009D0B0F5806F0AD0B0F5F9
:101FD000006F05D0B0F5406F07D105E0002504E0A3
:101FE000022502E0042500E008255C4B00264FF4A2
:101FF000004091423DD135B1022D07D0042D07D0CC
:10200000082D10D107E0FEF7B9FE03E0184602E004
:10201000FEF7D8FEA8B3626802EB4201814202D803
:10202000B0EB023F01D9012775E0DFF834815DB1E3
:10203000022D0CD0042D13D0082DF4D15008290501
:10204000401846F1000105E0FEF798FE0AE050084E
:102050004449F5E70023FEF723F9A0F5407156E067
:10206000FEF7B0FE6268010E0302500818187141B5
:10207000F0E7E1694FF6EF7881422FD1092DD2D2F6
:1020800000E048E0DFE805F0060920052305050526
:102090002600C8E7FEF772FE01E0FEF781FE410070
:1020A000D4F8040001EB5001B1FBF0F080B2A0F1D4
:1020B00010014145B7D84FF6F0710140C0F342001E
:1020C00001432068C16026E027496068EAE7FEF71F
:1020D00079FEE4E74FF480316068E3E7092DA2D28E
:1020E000DFE805F006091E052205050525009AE72B
:1020F000FEF744FE01E0FEF753FE0146606801EB87
:10210000500100BFB1FBF0F080B2A0F110014145D9
:1021100089D82168C860266638466666BDE8F081C1
:10212000606803EB5001EDE7FEF74CFEE5E7616800
:1021300000EB5100B0FBF1F0E6E70000008000404A
:10214000F369FFEF003801400010024000440040F6
:1021500000480040004C0040005000400024F400C3
:10216000FFFC0F00000024F40048E8012DE9F041D5
:10217000984617460E460446069D1DE0681C1BD077
:102180002DB1FEF7A7FAA0EB0800A84214D92068E9
:10219000016821F4D07101602068816821F001019B
:1021A0008160202084F8710084F87200002084F897
:1021B00070000320BDE8F0812068C06936EA0000A5
:1021C00004D00020B842D9D00020F3E70120F9E77D
:1021D0000148FFF787B9000078000020FEE7000003
:1021E0000FB4054B10B503A9044A029800F018F883
:1021F00010BC5DF814FB0000E92400087400002006
:1022000002E008C8121F08C1002AFAD170477047BF
:10221000002001E001C1121F002AFBD1704700001D
:102220002DE9FF4F8DB09B460F460446002606E081
:1022300025280BD05A460F999047641C761C2078AD
:102240000028F5D111B0304600F04AB90025A84663
:102250000122984900E0054314F8013F203B02FAAF
:1022600003F00842F7D120782E2817D114F8010F77
:1022700045F004052A280ED06FF02F022078A0F137
:10228000300109290AD808EB880102EB410100EB73
:102290000108641CF2E757F8048B641C20786C2852
:1022A0000DD004DC4C2812D06A2811D104E0742827
:1022B0000DD07A280CD10AE045F4001507E06178CA
:1022C00045F48015814202D1641C05F58015641C1B
:1022D0002278692A45D008DC002AB3D0582A69D070
:1022E000632A10D0642A08D13BE0702A67D0732A91
:1022F00013D0752A5CD0782A5CD010465A460F99C4
:102300009047761CD3E017F8040B8DF800000020EE
:102310008DF80100E946012003E057F8049B4FF0D7
:10232000FF3069074FF0000501D40AE06D1C4545F8
:102330000DDA8542FADB19F805100029F6D106E01E
:102340006D1C8542FCDB19F805100029F8D12E44DC
:1023500004E019F8010B5A460F9990476D1EF8D208
:10236000A5E00A200021CDE90801C5F302500228AA
:102370000DD001CFC117031E71F100030DDA4FF02C
:10238000000CD0EB0C006CEB01012D2308E0FF1DCD
:1023900027F00707F7E80201EDE72B0504D52B230B
:1023A0008DF8283001233BE0EB0739D02023F7E7F5
:1023B0000A2000E010200021CDE9080107E01020EC
:1023C000002145F00405CDE908014FF00808C5F3E8
:1023D000025002280FD001CF00214FF0000A2B0736
:1023E0001FD5702A0DD0DDE908C38CF0100C5CEA13
:1023F000030C0CD015E0FF1D27F00707F7E80201DA
:10240000EBE740228DF828204FF0010A0BE050EA5C
:10241000010306D030238DF828308DF829200223BF
:102420009A46582A04D024A20DF120090B9209E003
:1024300026A2F9E7DDE90823FDF732FF0B9B9B5C41
:1024400009F8013D50EA0102F4D1ADEB090020305A
:102450000890680701D44FF001080899884502DD0B
:10246000A8EB010000E000208046002506E00AA855
:102470005A46405D0F9990476D1C761C5545F6DB1A
:1024800004E030205A460F999047761CB8F10001BD
:10249000A8F10108F5DC05E019F8010B5A460F997F
:1024A0009047761C0899481E08900029F4DC641CAB
:1024B000C5E60000092801003031323334353637A3
:1024C0003839616263646566000000003031323380
:1024D0003435363738394142434445460000000020
:1024E00030BCBDE8C08F000013B54FF6FF7301226A
:1024F00069460548FFF708F9034800BF90F87110D6
:102500002029FBD100981CBD78000020FEF7F0F8D0
:10251000FFF772FBFFF77CF9FFF7B4F9084909A050
:10252000FFF75EFEFFF74AF900F01DF84FF4FA746A
:10253000034904A0FFF754FE2046FDF778FFF7E7B4
:10254000342F00080D0A25730D0A000001460020F3
:10255000842900D0C81C704710B500B9012000F0D4
:10256000EBFA002010BD10B500F00CFB002010BDF0
:102570003EB504460D46B0F90800FFF7E7FF02A993
:10258000CDE90001208A2B4682B2D4E9001000F088
:10259000DDFB012801D000203EBD02983EBD0000B9
:1025A0002DE9F041184C0F46054666692068001D6C
:1025B00000F008FA38B9206890F82C100120884003
:1025C000A1698143A161681C07D137B12168BDE8C9
:1025D000F0410E48091D00F02EBA20683544B5427E
:1025E0004560216805D2A068BDE8F041091D00F0F2
:1025F0000ABA6068091D00F006FA206B854200D215
:102600002563BDE8F0810000140000200C020020CA
:102610002DE9F041054600F01BFA2E4C2069401CC4
:10262000206120682C4F10B1E06940B32DE0256097
:102630002069012829D1002606EB860007EB8000DF
:1026400000F0D3F9761C072EF6D323488C3000F027
:10265000CCF92148A03000F0C8F91F48B43000F090
:10266000C4F91D48C83000F0C0F91B48DC3000F048
:10267000BCF919488C3060601430A06005E0206817
:10268000E96AC06A884200D82560E06A401CE062BE
:10269000E96A0120A26988401043A06101EB810032
:1026A00007EB8000291D00F0C6F900F0F1F9E069A0
:1026B00000280CD02068E96AC06A884207D207491E
:1026C0004FF080500860BFF34F8FBFF36F8FBDE8AE
:1026D000F0810000140000203001002004ED00E033
:1026E00010B50446006B00F0E7F92046BDE8104045
:1026F00000F0E2B90F4840F6B831420705D0C01DDE
:102700000C4A20F00700821A891A0B4A0023014460
:10271000C2E900030839103A21F0070111604B604B
:102720000B600B1AC0E9001393604FF00040536038
:10273000D06070472002002060000020144E154C2D
:10274000A6F1C8074FF08058DFF84C9012E000BFA8
:1027500000F07EF9F068C568281D00F033F92069A3
:10276000401E2061E068401EE06000F091F92846BC
:10277000FFF7B6FFE0680028EAD138680128F9D9E8
:10278000C9F80080BFF34F8FBFF36F8FF2E70000EF
:10279000F80100201400002004ED00E02DE9F047CE
:1027A0009A46DDE9098481466FF00303206B03EB51
:1027B00082021044089D20F00706700707D05020C1
:1027C00080F31188BFF34F8FBFF36F8FFEE723189D
:1027D0000A5C83F834200A5C12B1401C1028F6D33E
:1027E000002784F84370072D00D30625E562C4E96D
:1027F0001157201D00F004F904F1180000F000F951
:102800002461C5F107006462A061E76484F8507038
:1028100052464946304600F0BFF82060B8F1000F3C
:1028200001D0C8F80040BDE8F087000030B511497C
:1028300000E011460A688242FBD34B685C18844270
:1028400003D1406818444860084643681C18944205
:1028500009D1084C103C2468A24209D052681A449D
:1028600042600A6812680260814200D0086030BD90
:102870000460F9E76000002006484168096829B152
:102880004168C968C9684968016370474FF0FF3102
:10289000FAE700001400002008484068401C4FF090
:1028A000500080F3118804D0BFF34F8FBFF36F8FB8
:1028B000FEE7BFF34F8FBFF36F8FFEE76800002086
:1028C0002DE9F0410546002700F090F9314E3068BF
:1028D00008B9FFF70FFFF06805424BD1C5B30835C3
:1028E00068070ED005F00700C0F10800054468072E
:1028F00007D0502080F31188BFF34F8FBFF36F8F45
:10290000FEE72DB37068854234D822481030014666
:102910000C6801E020460C466168A94202D2216899
:102920000029F7D131688C4224D007682168016002
:1029300060680837411B10290FD96019420708D079
:10294000502080F31188BFF34F8FBFF36F8FFEE7E6
:1029500010E041606560FFF769FF61687068401AC8
:102960007060B268904200D2B060F068014300200D
:10297000C4E9000100F07CFA780707D0502080F30A
:102980001188BFF34F8FBFF36F8FFEE73846BDE866
:10299000F08100005000002010B5031F4FF080743C
:1029A0001C601B1F21F001011960191F044B0B60F3
:1029B00014390A60091F6FF0020244380A6010BD22
:1029C00099280008D0E9013201699A60D0E9012311
:1029D0005A604A68824201D182684A6000220261DC
:1029E0000868401E08600868704700F108014FF051
:1029F000FF32C0E90112C16001610021016070472E
:102A000000210161704730B50B685A1C02D000F1FB
:102A1000080202E0026904E02246546825689D42EB
:102A2000FAD953684B6099608A6051600861016807
:102A3000491C016030BD42684A6093688B609368AE
:102A40005960916008610168491C0160704700008D
:102A5000502080F31188BFF34F8FBFF36F8F0A4967
:102A60004868401C486001280CD10848006810F0F4
:102A7000FF0F07D0502080F31188BFF34F8FBFF3B3
:102A80006F8FFEE7704700006800002004ED00E053
:102A90000849486828B1401E486001D180F3118878
:102AA0007047502080F31188BFF34F8FBFF36F8FB3
:102AB000FEE700006800002070B5002827D0144D04
:102AC000A0F108046168E868014207D1502080F352
:102AD0001188BFF34F8FBFF36F8FFEE722683AB1C3
:102AE000502080F31188BFF34F8FBFF36F8FFEE745
:102AF0008143616000F07AF8606869680844686042
:102B00002046FFF793FEBDE8704000F0B1B970BDFC
:102B1000500000204FF0E020002101618161054953
:102B20004FF47A720968B1FBF2F1491E4161072145
:102B3000016170471000002010B5020014D00F484A
:102B4000806B38B1502080F31188BFF34F8FBFF3F3
:102B50006F8FFEE700F04AF800211046FFF720FDD6
:102B600000F086F9002807D105494FF08050086031
:102B7000BFF34F8FBFF36F8F10BD00001400002014
:102B800004ED00E01CB515480024CDE900402346C3
:102B9000802213A1144800F0D9F8012809D0401C64
:102BA0001AD1502080F31188BFF34F8FBFF36F8F7E
:102BB000FEE7502080F31188BFF34F8FBFF36F8F74
:102BC00006484FF0FF31343801630121C16144618F
:102BD000BDE81C4000F040B81CBD000048000020CB
:102BE00049444C45000000003D2700080248816B25
:102BF000491C816370470000140000201448816B59
:102C000011B1012141627047002141628169B1FA2D
:102C100081F1C1F11F0101EB81020E4951F822300F
:102C20006BB101EB820101F108034A6852684A6006
:102C30009A4201D152684A60D168016070475020C1
:102C400080F31188BFF34F8FBFF36F8FFEE7000053
:102C500014000020300100201CB537480168374AB5
:102C6000914207D1502080F31188BFF34F8FBFF3FB
:102C70006F8FFEE700683149491E884207D1502016
:102C800080F31188BFF34F8FBFF36F8FFEE72C499E
:102C900008780190FF20087008788DF800009DF8F2
:102CA00000009DF8002000F0F000904207D0502076
:102CB00080F31188BFF34F8FBFF36F8FFEE79DF84E
:102CC0000000204B00F0500018700720986005E0CD
:102CD0009DF8002052008DF80020401E9DF8002035
:102CE0001206F5D49860032807D0502080F311888D
:102CF000BFF34F8FBFF36F8FFEE74FF440709860C4
:102D0000019808700C482030016841F4700101609E
:102D1000016841F070410160FFF7FCFE002058603F
:102D2000FDF760FA0848016841F040410160FDF795
:102D300045FA00201CBD000000ED00E071C20F410B
:102D400000E400E06800002034EF00E02DE9FF5FC0
:102D50008346DDE90E87994616468A469000FFF7BE
:102D6000AFFD05001AD05420FFF7AAFD040012D0D1
:102D700025630021CDE90241CDE900874B4632466B
:102D800051465846FFF70AFD2046FFF741FC012057
:102D900004B000F006B82846FFF78EFE4FF0FF3073
:102DA000F6E730BCBDE8C09F2DE9F0412E4C00276E
:102DB000A06B40B1206A401C2062606A00B101270C
:102DC0003846BDE8F0816669761C666113D160689B
:102DD000006838B1502080F31188BFF34F8FBFF3E4
:102DE0006F8FFEE76068A1686160A060A06A401C08
:102DF000A062FFF741FD206BDFF87080864209D3A7
:102E00006068006880B16068C068C56868688642AC
:102E10000DD220632068C06A00EB800158F82100C1
:102E20000128CAD90127C8E74FF0FF30F1E7281D74
:102E3000FFF7C8FDA86A18B105F11800FFF7C2FD39
:102E4000E86A0121A26981401143A16100EB800180
:102E500008EB8100291DFFF7EEFDE86A2168C96AC9
:102E60008842CDD30127CBE7140000203001002099
:102E70002DE9F0472C4D00242746A86B38B1FFF709
:102E8000E7FDA86B401EA863A86B40B146E0502048
:102E900080F31188BFF34F8FBFF36F8FFEE729696F
:102EA000224E0120D1B3A6F1B40980463068E8B1C2
:102EB000F068C46804F11800FFF784FD201DFFF7D7
:102EC00081FDE06AAA6908FA00F11143A96100EBEB
:102ED000800109EB8100211DFFF7ADFDE06A296843
:102EE000C96A8842E2D3C5F82480DFE70CB1FFF756
:102EF000C3FC2C6A44B14646FFF756FF00B16E6230
:102F0000641EF9D100202862686A38B10849012797
:102F100038070860BFF34F8FBFF36F8FFFF7B8FD1F
:102F20003846BDE8F087000014000020E4010020CE
:102F300004ED00E06D61696E00000000EC2F0008F8
:102F4000951B000800000000000000008000000049
:102F5000D42F0008BD1B0008FDFF0000000000008A
:102F600080000000E02F0008C51B0008FDFF0000E6
:102F700000000000800000005374617274446566B4
:102F800061756C745461736B0000000000000000F8
:102F9000000000000102030406070809A0860100E2
:102FA000400D0300801A060000350C0040420F005F
:102FB00080841E0000093D0000127A000024F40005
:102FC00000366E010048E801006CDC0200000000E1
:102FD000010203046D795461736B3032000000000C
:102FE0006D795461736B3033000000006465666175
:102FF000756C745461736B00183000080000002079
:1030000078000000002200089030000878000020BE
:103010006011000010220008000000000000000005
:10302000000000000000000000093D00000000005A
:103030000000000000000000000000000000000090
:103040000000000000000000000000000000000080
:103050000000000000000000000000000000000070
:103060000000000000000000000000000000000060
:103070000000000000000000000000000000000050
:1030800000000000AAAAAAAA000000000000000098
:040000050800018965
:00000001FF
