:020000040800F2
:100000005804002045010008B71100084F100008EF
:10001000B511000853020008751500080000000023
:10002000000000000000000000000000DD110008DA
:100030005502000800000000DB110008DF11000875
:100040005F0100085F0100085F0100085F01000810
:100050005F0100085F010008570200085F01000807
:100060005F0100085F0100085F0100085F010008F0
:100070005F0100085F0100085F0100085F010008E0
:100080005F0100085F0100085F0100085F010008D0
:100090005F0100085F0100085F01000865020008B9
:1000A0005F0100085F0100085F0100085F010008B0
:1000B0005F0100085F0100085F0100085F010008A0
:1000C0005F0100085F0100085F0100085F01000890
:1000D0005F010008691500085F0100085F01000862
:1000E0005D0200085F0100085F0100085F01000871
:1000F0005F0100085F0100085F0100085F01000860
:100100005F0100085F0100085F0100085F0100084F
:100110005F0100085F0100085F0100085F0100083F
:100120005F0100085F0100085F0100085F0100082F
:10013000DFF80CD000F06CF800480047411A0008C6
:10014000580400200648804706480047FEE7FEE7BF
:10015000FEE7FEE7FEE7FEE7FEE7FEE7FEE7FEE777
:100160002512000831010008202A04DB203A21FA78
:1001700002F00021704721FA02F3D040C2F12002C0
:100180009140084319467047D2B201E000F8012BB4
:10019000491EFBD270470022F6E710B513460A4607
:1001A00004461946FFF7F0FF204610BD2DE9F05F29
:1001B0000546002092469B468846064681464024D6
:1001C0001BE02846414647462246FFF7CDFF5346EF
:1001D0005A46C01A914110D311461846224600F0E3
:1001E00029F82D1A67EB01084F462246012000210D
:1001F00000F020F817EB00094E41201EA4F1010485
:10020000DFDC484631462A464346BDE8F09F000001
:10021000064C074D06E0E06840F0010394E8070053
:1002200098471034AC42F6D3FFF786FF901A0008C7
:10023000B01A0008202A04DB203A00FA02F100205C
:1002400070479140C2F1200320FA03F31943904014
:100250007047FEE77047012000F042B94FF40050AC
:1002600000F03EB910B5402000F03AF9BDE810406A
:10027000802000F035B970472DE9F05F90F821102B
:100280000024022903D004218163012485E0016850
:100290000A6822F00E020A6001680A6822F0010270
:1002A0000A603F4E3E4FB215DFF8F4C0DFF8F09021
:1002B000DFF8ECA0DFF8E8B0DFF8E4E00168783FB1
:1002C00013011502ACF1640CA9F15009AAF13C0A22
:1002D000ABF1280BAEF1140E4FF48018B14227D9C0
:1002E000B9420ED0614512D049451DD0514518D0B4
:1002F000594518D0714501D1424615E0294EB14209
:1003000001D1012210E0274E1436B14201D1102252
:100310000AE0244E2836B14206D0224A3C329142AD
:1003200001D11A4600E02A461E49091F0A602BE047
:10033000B94213D0614517D0494522D051451DD04F
:1003400059451DD0714501D142461AE0B14202D152
:100350004FF0807215E0134EB14201D1012210E03E
:10036000104E1436B14201D110220AE00D4E28364B
:10037000B14206D00B4A3C32914201D11A4600E00C
:100380002A46074980394A60012180F8211000215E
:1003900080F82010416B01B188472046BDE8F09FEE
:1003A000800002400804024070B5044600F0A2F943
:1003B0000546601C02D004480078044400F09AF915
:1003C000401BA042FAD370BD0000002070B5044667
:1003D000014624A001F0D0F84FF40055254EAC4260
:1003E0000AD10220FFF7E0FF2946304600F078F9F5
:1003F000002835D120A02FE0012C05D0402C16D0AC
:10040000802C1FD020A027E00220FFF7CDFF012184
:10041000204800F065F930B10121304600F060F964
:1004200018B11DA018E01FA016E021A014E00220C2
:10043000FFF7BAFF4021304600F052F900280FD1F3
:100440001FA009E00220FFF7AFFF8021304600F037
:1004500047F9002804D11EA0BDE8704001F08CB817
:1004600070BD00004750494F5F50696E3D253038E0
:10047000780D0A00001001404B45594331335F505D
:10048000696E2D2D0000000045525220434F4D2D26
:100490002D000000001801404E4F54204B4E4F5786
:1004A0002D2D00004B455945305F50696E2D2D00B4
:1004B0004B45594530305F50696E2D2D00000000CE
:1004C0004B45595043365F50696E2D2D000000009A
:1004D0004B45595043375F50696E2D2D0000000089
:1004E000044910B50A68024202D00860FFF76EFFA7
:1004F00010BD0000140401402DE9F84FDFF8B8A149
:1005000000220AF1040B144601274FF00F090BF1EA
:10051000040E00BF0B6807FA04F52B40AB4274D100
:10052000DFF898C14E68A6EB0C0866452BD00DDCB1
:10053000032E34D005DC36B3012E19D0022E2FD174
:100540001BE0112E16D0122E2AD119E0B8F5881F03
:1005500019D006DCB8F5803F15D0B8F5801F1FD143
:1005600011E0B8F5001F0ED0B8F5041F18D10AE04D
:10057000CA6815E0CA68121D12E0CA6808320FE0A6
:10058000CA680C320CE08A682AB1012A4FF00802CE
:1005900003D0456104E0042202E0056100E000228E
:1005A000FF2B01D8064601E000F104064FEA84055E
:1005B00001D9A5F12005D6F800C009FA05F82CEA02
:1005C000080C02FA05F54CEA050CC6F800C04D68A7
:1005D000ED006AD53A4DAE6946F00106AE61AD69EF
:1005E00024F0030605F001050095364D06EB050CD9
:1005F000DCF80850A6074FEA167809FA08F6B54362
:10060000314EB04202D100261AE04EE02F4EB042E9
:1006100001D1012614E02E4EB04201D102260FE096
:100620002C4EB04201D103260AE02B4EB04201D13C
:10063000042605E0294EB04201D1052600E0062639
:1006400006FA08F62E43CCF808604D68DAF8006028
:10065000ED03554601D51E4300E09E432E604D68D4
:10066000AD0305D5DBF800601E43CBF8006004E065
:10067000DBF800509D43CBF800504D68DEF8006079
:10068000ED02754601D51E4300E09E432E604D6885
:10069000AD0205D5084D0C352E681E432E6004E0D2
:1006A000054E0C3635689D433560641C102CFFF4F4
:1006B00031AFBDE8F88F00000004014000001110C8
:1006C000001002400000014000080140000C014001
:1006D000001001400014014000180140001C0140BE
:1006E0008068084000D0012070470AB1016170475E
:1006F0000904FBE701488068704700000000002003
:10070000024881680278114481607047000000202F
:10071000074810B5016841F010010160032000F0A6
:1007200073F8002000F006F800F024F8002010BD57
:100730000020024070B50D4D04464FF47A712878C0
:10074000B1FBF0F00A490968B1FBF0F000F010FBD2
:1007500048B9102C07D200222146501E00F034F870
:1007600000206C6070BD012070BD00000000002002
:100770000C0000200C4808B5816941F0010181613D
:10078000816901F001010091C16941F08051C161AD
:10079000C06900F0805000900448416821F0E06199
:1007A00041F00071416008BD0010024000000140AE
:1007B00000F01F02012191404009800000F1E0207B
:1007C000C0F8001170470000F0B40E4B1B680C46D7
:1007D000C3F30223C3F10705042D00D90425191D15
:1007E000072901D2002300E0DB1E012606FA05F1ED
:1007F000491E214099409E40761E16403143F0BC70
:1008000000F0DBBC0CED00E0064900F007020868D0
:100810004FF6FF03184040EA0220034A10430860E5
:10082000704700000CED00E00000FA057047000082
:100830002DE9F047DFF8548105460E46D8F8000050
:1008400000F00700B0420CD2D8F8001021F00701E8
:100850003143C8F80010D8F8000000F00700B0429B
:100860006FD128684A4C810712D5400703D56068CC
:1008700040F4E06060602878000703D5606840F4C9
:10088000605060606068A96820F0F0000843606014
:100890002878C00744D06868012816D0216802284B
:1008A00016D0890700294CDA616821F00301014361
:1008B0006160FFF71FFF6968074641F28830012930
:1008C0000ED00229814618D026E021688903E9E785
:1008D0008901E7E7FFF70EFFC11B494501D918E081
:1008E00081466068C0F381000128F3D118E000BFA1
:1008F000FFF700FFC11B49450BD86068C0F38100BA
:100900000228F5D10CE000BFFFF7F4FEC11B4945FA
:1009100002D90320BDE8F087606810F00C0FF3D116
:10092000D8F80010404601F00701B1420BD9016828
:1009300021F0070131430160006800F00700B04278
:1009400001D00120E6E72878400705D56068E9680E
:1009500020F4E060084360602878000706D56068EE
:10096000296920F4605040EAC100606000F03CF862
:100970006168084AC1F30311515CC8400649086028
:100980000020FFF7D7FE0020C4E70000002002404F
:1009900000100240751A00080C00002001490120D7
:1009A000C86470470000424204480549006849682D
:1009B000044AC1F30221515CC84070470C0000207A
:1009C00000100240851A000804480549006849687B
:1009D000044AC1F3C221515CC84070470C0000209A
:1009E00000100240851A000812A185B00FC98DE8D9
:1009F0000F0014A0144A006804905168134801F0D5
:100A00000C03042B10D0082B0ED1C1F38343C90370
:100A10001DF803000AD5516804AAC1F34041515C96
:100A20000A4A5043B0FBF1F005B07047084948430B
:100A3000FAE7000002030405060708090A0B0C0D7B
:100A40000E0F1010010200000010024000127A0088
:100A500000093D0010B5044CA068000603D5FFF75F
:100A6000E5FE8020A07210BD001002402DE9F84F75
:100A700004460078B94DC00748D06868C0F38100CB
:100A8000012807D06868C0F38100022809D168688E
:100A9000C00306D52868800338D5606800286FD069
:100AA00034E06068B0F5803F0BD010B1B0F5A02FF6
:100AB00011D0286820F480302860286820F4802035
:100AC00002E0286840F480302860606888B1FFF751
:100AD00011FE064609E0286840F480202860F0E70F
:100AE000FFF708FE801B642875D828688003F7D5B7
:100AF0000CE0FFF7FFFD064605E000BFFFF7FAFD3B
:100B0000801B6428F0D828688003F7D42078944E9E
:100B100080074FF001094FF000083BD5686810F0DE
:100B20000C0F07D06868C0F38100022809D16868FB
:100B3000C00306D42868800714D5206901281FD176
:100B400010E02069B0B1C6F80090FFF7D3FD07466A
:100B500005E000BFFFF7CEFDC01B0228C4D82868FF
:100B60008007F7D52868616920F0F80040EAC100E5
:100B700028600FE0C6F80080FFF7BCFD074606E0DE
:100B8000E9E000BFFFF7B6FDC01B022823D82868A4
:100B90008007F7D4207800072CD57248A169D9B115
:100BA000C0F80090FFF7A6FD074604E0FFF7A2FD9E
:100BB000C01B02280FD8686A8007F7D56A484FF42F
:100BC000FA510068B0FBF1F0009000BF0098411EA0
:100BD0000091FAD20EE080E0C0F80080FFF78AFDB5
:100BE000074604E0FFF786FDC01B022875D8686A37
:100BF0008007F7D42078400760D5E8690027C00057
:100C000008D4E86940F08050E861E869012700F005
:100C10008050009055480168C90513D40168834687
:100C200041F480710160FFF765FD824606E000BF78
:100C3000FFF760FDA0EB0A0064284ED8DBF8000047
:100C4000C005F5D5E06801280AD008B1052813D001
:100C5000286A20F001002862286A20F0040002E0DF
:100C6000286A40F001002862E06841F2883B98B1B0
:100C7000FFF740FD82460BE0286A40F0040028623E
:100C8000EEE700BFFFF736FDA0EB0A0159455AD841
:100C9000286A8007F6D50CE0FFF72CFD824605E0B8
:100CA000FFF728FDA0EB0A0159454CD8286A8007B8
:100CB000F6D41FB1E86920F08050E861E06988B39C
:100CC0006968C1F38101022945D00228C6F8608015
:100CD00004D0FFF70FFD044638E034E0FFF70AFDCB
:100CE000074604E0FFF706FDC01B02282BD8286842
:100CF0008001F7D4206AB0F5803F05D16868A1680B
:100D000020F4003008436860D4E9080108436968AA
:100D100021F4741108436860C6F86090FFF7EAFC9C
:100D2000044606E015E000BFFFF7E4FC001B0228C4
:100D300009D828688001F7D50BE000BFFFF7DAFC7F
:100D4000001B022802D90320BDE8F88F2868800123
:100D5000F4D40020F8E70120F6E70000001002407C
:100D600000004242800442420C000020007000401B
:100D700010B5401EB0F1807F01D3012010BD4FF0AF
:100D8000E02460610F21601700F017FA0020A061D5
:100D900007202061002010BD7047000070B5026878
:100DA00004461068D168536910F00F0F50D003F05B
:100DB000010501F4907635435DD0C20705D0CA0520
:100DC00003D5E26B42F00102E263420705D5DA0780
:100DD00003D0E26B42F00202E263820705D5DA0734
:100DE00003D0E26B42F00402E263020705D5DA07A2
:100DF00003D0E26B42F00802E263E26B002A33D0D8
:100E0000800604D5880602D5204600F045FA206801
:100E10004069E16BC0F38010090700D428B3204675
:100E200000F02CFA2068416949061AD5416921F081
:100E300040014161606BA0B11B494163606BFFF7EA
:100E40001BFA002810D0606B416BBDE8704008476A
:100E5000830610D58B060ED52046BDE8704000F005
:100E60001BBA2046FFF798FF70BD2046FFF794FF9E
:100E70000020E06370BD030606D50B0604D52046AE
:100E8000BDE8704000F00CBB4006F3D54806F1D534
:100E9000D168204621F04001D160202184F839102A
:100EA00000F0D4F870BD00006D12000870B50400A9
:100EB00004D094F83900002510B106E0012070BD7F
:100EC00084F83850204600F023F8242084F83900B4
:100ED0002068C16821F40051C160204600F028FA62
:100EE0002068016921F4904101612068416921F085
:100EF0002A0141612068C16841F40051C160E56385
:100F0000202084F8390084F83A00002070BD0000E9
:100F100030B585B0002400940194029403940068D5
:100F2000184988422CD11848816941F48041816177
:100F3000816901F480410491816941F0040181617A
:100F40008069124D00F0040004904FF4007000908E
:100F5000022001900320039069462846FFF7CCFA4F
:100F60002815CDE90004694628460294FFF7C4FA23
:100F7000002203212520FFF727FC2520FFF718FC7E
:100F800005B030BD003801400010024000080140AB
:100F900070472DE9F843044690F839001F4616467D
:100FA0000D46202850D1A5B19EB194F838000128F3
:100FB0004AD0012084F838004FF00008C4F83C8083
:100FC000212084F83900FFF795FBA6848146E6844A
:100FD00026E00120BDE8F883E08C401EE084A06894
:100FE0004B46B0F5805F4FF000024FF08001204685
:100FF000009703D000F085FAE8B90DE000F081FA1F
:10100000C8B928882168C0F308004860206908B181
:101010006D1C05E0AD1C03E0216815F8010B48606C
:10102000E08C0028D8D14B46002240212046009772
:1010300000F067FA08B10320CCE7202084F83900DB
:1010400084F838800020C5E70220C3E77047FEE738
:101050002DE9F04F85B00025424800950195029595
:101060000395816941F010018161816901F01001EE
:101070000491816941F020018161816901F02001C1
:101080000491816941F004018161816901F00401E9
:101090000491816941F480718161816901F48071F9
:1010A0000491816941F0400181618069DFF8B89065
:1010B00000F040004FF400570490002239464846A3
:1010C000FFF713FBDFF8A4A04FF48048002241464D
:1010D0005046FFF70AFB264E4FF40350CDE90006B9
:1010E000DFF890B00124694602945846FFF704FAED
:1010F000CDE900740227CDE9025769464846FFF75B
:10110000FBF901AACDF8008082E8B000694650469C
:10111000FFF7F2F9CDE90046694617480294FFF758
:10112000EBF90094694658460294FFF7E5F900226E
:1011300003210620FFF748FB0620FFF739FB0022BA
:1011400001211720FFF740FB1720FFF731FB00229A
:1011500002212820FFF738FB2820FFF729FB05B0E4
:10116000BDE8F08F00100240001401400020014053
:101170000000211000100140001801400C4810B57B
:101180000A4901604FF4E1314160002181600C2285
:10119000C160C0E904128161C161FFF787FE0028C8
:1011A00003D0BDE81040FFF766B810BD003801401D
:1011B00014000020FEE7FFF74DBC0907090E0028C8
:1011C00006DA00F00F0000F1E02080F8141D7047EF
:1011D00000F1E02080F80014704770477047FFF777
:1011E0008FBA30B58FB028216846FEF7D4FF14219E
:1011F0000AA8FEF7D0FF01252804CDE900500024FD
:1012000007946846FFF732FC0F200A90CDE90B5493
:101210000D9400210AA80E94FFF70AFBFFF7BEFB0E
:101220000FB030BD0D48016841F001010160416817
:101230000B4A1140416001680A4A1140016001688F
:1012400021F480210160416821F4FE0141604FF4E6
:101250001F0181600449C00308607047001002400C
:101260000000FFF8FFFFF6FE08ED00E010B5406A51
:101270000021C185C184FFF78FFD10BD0168CA68D8
:1012800022F49072CA6001684A6922F001024A6140
:10129000202180F83A10704710B590F83A102229B2
:1012A00001D0022010BD8168B1F5805F11D00169C5
:1012B000002901681FD0496801F07F03816A4A1C38
:1012C00082620B70C18D491E0904090CC18518D0BA
:1012D0002BE00269816A002A0268526805D0D2B206
:1012E0000A80816A491C8162ECE7C2F308020A8025
:1012F000816A891CF7E74A68816A4B1C83620A701D
:10130000E0E70168CA6822F02002CA600168CA6882
:1013100022F48072CA6001684A6922F001024A61BF
:10132000202180F83A10FFF733FE002010BD0000A6
:101330002DE9F041044600680169E26821F440515A
:10134000114301612169A06808436169084321686C
:10135000CA6841F20C639A430243CA60206841693B
:10136000A26921F44071114341614C492068642510
:10137000322688423CD1FFF727FB00EBC00101EB8E
:10138000001061688900B0FBF1F7FFF71DFB00EB6F
:10139000C00101EB00106168B0468900B0FBF1F0BC
:1013A000B0FBF5F06FF01801484307EB800106EB46
:1013B0000110B0FBF5F000F0F006FFF705FB00EBC5
:1013C000C00101EB001061688900B0FBF1F0B0FBD7
:1013D000F5F006EB0016FFF7F7FA00EBC00101EBA2
:1013E000001061688900B0FBF1F7FFF7EDFA3BE010
:1013F000FFF7DAFA00EBC00101EB00106168890029
:10140000B0FBF1F7FFF7D0FA00EBC00101EB0010E1
:101410006168B0468900B0FBF1F0B0FBF5F06FF009
:101420001801484307EB800106EB0110B0FBF5F013
:1014300000F0F006FFF7B8FA00EBC00101EB001076
:1014400061688900B0FBF1F0B0FBF5F006EB001627
:10145000FFF7AAFA00EBC00101EB001061688900F8
:10146000B0FBF1F7FFF7A0FA00EBC00101EB0010B1
:1014700061688900B0FBF1F0B0FBF5F06FF0180186
:10148000484307EB800108EB0110B0FBF5F0216841
:1014900000F00F0030448860BDE8F0810038014062
:1014A00090F83910212901D0022070478168B1F5E8
:1014B000805F016A0BD04A1C0262026809785160A1
:1014C000C18C491E0904090CC1840ED017E009889B
:1014D0000268C1F30801516001690029016A02D064
:1014E000491C0162ECE7891CFBE70168CA6822F02D
:1014F0008002CA600068C16841F04001C1600020FC
:1015000070472DE9F041984617460E460446069D61
:101510001DE0681C1BD02DB1FFF7ECF8A0EB080014
:10152000A84214D92068C16821F4D071C160206834
:10153000416921F001014161202084F8390084F8DB
:101540003A00002084F838000320BDE8F0812068CC
:10155000006836EA000004D00020B842D9D000204C
:10156000F3E70120F9E700000148FFF717BC00008E
:1015700014000020FEE700000FB4054B10B503A9CE
:10158000044A029800F018F810BC5DF814FB000043
:101590001D1A00081000002002E008C8121F08C130
:1015A000002AFAD170477047002001E001C1121FE4
:1015B000002AFBD1704700002DE9FF4F8DB00F4688
:1015C0000546002606E025280BD0DDE90F129047DE
:1015D0006D1C761C28780028F5D111B03046BDE886
:1015E000F08F0024A246A1460122EC4900E004430A
:1015F00015F8013F203B02FA03F00842F7D12878A2
:101600002A2810D06FF02F022878A0F13001092984
:1016100014D80AEB8A0102EB410144F0020400EB0A
:10162000010A6D1CF0E701CF5FEA000A03D544F41C
:101630000054CAF1000A44F002046D1C28782E28D8
:1016400017D115F8010F44F004042A280ED06FF0CA
:101650002F022878A0F1300109290AD809EB890165
:1016600002EB410100EB01096D1CF2E757F8049B06
:101670006D1C28786C280FD006DC4C2817D0682801
:101680000DD06A2814D104E0742810D07A280FD124
:101690000DE044F400140AE044F4801401E044F442
:1016A00040146978814202D104F580146D1C6D1CD0
:1016B0002A786E2A1FD00CDC632A31D004DC002A81
:1016C0008BD0582A11D1A3E0642A68D0692A0CD1A2
:1016D00065E0732A2ED004DC6F2A73D0702A04D1FF
:1016E0009BE0752A6FD0782A6ED01046DDE90F1284
:1016F0009047761C50E1C4F30250022806D003281C
:1017000009D0042801CF09D0066045E101CFF117C7
:10171000C0E9006140E101CF06803DE106703BE198
:1017200017F8040B8DF8000000208DF80100EB463F
:10173000012003E057F804BB4FF0FF3061074FF082
:10174000000102D40DE008F10101884649450FDA95
:101750008045F8DB1BF808100029F4D108E008F1F7
:10176000010188468142FADB1BF808100029F6D1F6
:10177000DDE90F23AAEB08008146214600F036F987
:10178000304400EB080604E0DDE90F121BF8010B02
:101790009047B8F10108F7D221464846F7E00A2100
:1017A000C4F302534FF0000B0891022B04D001CF79
:1017B000C117032B09D00AE0FF1D27F00707F7E840
:1017C000020108E032E01FE020E000B2C117042B64
:1017D00001D140B2C117031E71F1000307DA4FF0C7
:1017E000000CD0EB0C006CEB01012D2302E0230573
:1017F00004D52B238DF82430012303E0E30701D027
:101800002023F7E7984658E00A2110E010210EE067
:1018100010204FF0000B08900CE010214FF0000B4F
:1018200044F004044FF00809089103E008214FF048
:10183000000B0891C4F30253022B04D001CF002106
:10184000032B06D006E0FF1D27F00707F7E802018B
:1018500003E080B2042B00D1C0B24FF00008230790
:101860002BD5702A07D0DDF820C08CF0100C5CEA74
:101870000B0C05D00EE040238DF82430012308E046
:1018800050EA010306D030238DF824308DF825204E
:1018900002239846DDF820C08CF0080C5CEA0B0CA3
:1018A0000BD150EA010301D1630706D530238DF82F
:1018B00024304FF00108A9F10109582A04D038A2B8
:1018C0000B9208AA0A920BE03AA2F9E75B46089A43
:1018D000FEF76CFC0B9B9B5C0A9A521E0A921370DB
:1018E00050EA0102F2D10A98ADEB000000F1200BA2
:1018F000600702D524F4803401E04FF00109D94596
:1019000002DDA9EB0B0000E0002000EB0B014144DD
:101910000890AAEB010AE00306D4DDE90F23214673
:10192000504600F063F806444FF0000908E009A9AA
:1019300011F80900DDE90F12904709F10109761C41
:10194000C145F4DBE0030CD5DDE90F232146504609
:1019500000F04CF8064404E0DDE90F123020904717
:10196000761C0899481E08900029F5DC08E00A98C2
:101970000A990078491C0A91DDE90F129047761CFC
:10198000BBF10001ABF1010BF1DC21465046DDE972
:101990000F2300F019F806446D1C1BE6092801000E
:1019A00030313233343536373839616263646566D5
:1019B0000000000030313233343536373839414297
:1019C00043444546000000002DE9F041044600254F
:1019D0001E461746880404D405E039462020B04747
:1019E0006D1C641EF9D52846BDE8F0812DE9F04153
:1019F000044600251E469046C80301D5302700E066
:101A00002027880404D505E041463846B0476D1CC0
:101A1000641EF9D52846BDE8F081000013B54FF6E5
:101A2000FF73012269460548FFF7B3FA034800BF78
:101A300090F839102029FBD100981CBD140000201B
:101A4000FEF766FEFFF7CDFBFFF702FBFFF796FB05
:101A50004FF4FA64034904A0FFF78EFD2046FEF719
:101A6000A3FCF7E7701A00080D0A25730D0A0000A1
:101A70006D61696E000000000000000000010203BB
:101A8000040607080900000000010203040000002A
:101A9000B01A00080000002014000000981500088B
:101AA000C41A00081400002044040000A81500080F
:101AB00001000000100000000000000000A24A0425
:041AC0000000000022
:0400000508000131BD
:00000001FF
