:020000040800F2
:10000000880400209D010008491A00083B190008D7
:10001000451A0008B1020008C925000800000000C8
:10002000000000000000000000000000151E000895
:10003000B502000800000000851A0008171E00081D
:10004000B7010008B7010008B7010008B7010008B0
:10005000B7010008B7010008B7010008B7010008A0
:10006000B7010008B7010008B7010008B701000890
:10007000B7010008B7010008B7010008B701000880
:10008000B7010008B7010008B7010008B701000870
:10009000B7010008B7010008B7010008B70200085F
:1000A000B7010008B7010008B7010008B701000850
:1000B000B7010008B7010008B7010008B701000840
:1000C000B7010008B7010008B7010008B701000830
:1000D000B7010008B9250008B7010008B7010008FA
:1000E000B7010008B7010008B7010008B701000810
:1000F000B7010008B7010008B7010008B701000800
:10010000B7010008B7010008B7010008B7010008EF
:10011000B7010008B7010008B7010008B7010008DF
:10012000B7010008B7010008B7010008B7010008CF
:10013000B7010008B7010008B7010008B7010008BF
:10014000B7010008B7010008B7010008000000006F
:10015000B7010008B7010008B7010008B70100089F
:10016000B7010008B7010008B7010008B70100088F
:10017000B7010008B70100080000000000000000FF
:10018000B7010008B7010008DFF80CD000F07EF8D6
:10019000004800479D2A0008880400200648804740
:1001A00006480047FEE7FEE7FEE7FEE7FEE7FEE75C
:1001B000FEE7FEE7FEE7FEE79D1E00088901000856
:1001C0002DE9F05F0546002092469B46884606468C
:1001D000814640241BE0284641464746224600F01F
:1001E00044F853465A46C01A914110D31146184656
:1001F000224600F02BF82D1A67EB01084F462246E5
:100200000120002100F022F817EB00094E41201ECA
:10021000A4F10104DFDC484631462A46434600F09B
:1002200000B830BCBDE8C09FD2B201E000F8012B9D
:10023000491EFBD270470022F6E710B513460A4666
:1002400004461946FFF7F0FF204610BD202A04DBC4
:10025000203A00FA02F1002070479140C2F12003D9
:1002600020FA03F3194390407047202A04DB203A18
:1002700021FA02F00021704721FA02F3D040C2F1C6
:10028000200291400843194670470000064C074D74
:1002900006E0E06840F0010394E807009847103456
:1002A000AC42F6D3FFF774FFF82B0008182C0008B7
:1002B00000BFFEE7704710B5402000F091F88020A5
:1002C00000F08EF810BD704770B50446002594F814
:1002D0002500022803D00420E063012520E02068E7
:1002E000006820F00E00216808602068006820F097
:1002F00001002168086094F8440000F01C0101200E
:100300008840216C4860012084F8250000BF00204F
:1003100084F8240000BFA06B10B12046A16B884771
:10032000284670BD70B5044600F07CF906462546A7
:10033000681C00B16D1C00BF00F074F9801BA8425E
:10034000FAD370BD10B50446214614A002F03EF960
:100350004FF480714FF0904000F05AF9402C0BD1CF
:100360000220FFF7DFFF4021114800F049F9A0B952
:1003700010A002F02BF910E0802C0BD10220FFF727
:10038000D1FF80210A4800F03BF930B90DA002F0FE
:100390001DF902E00FA002F019F910BD31234750FA
:1003A000494F5F50696E3D253038780D0A000000D6
:1003B0000008004832234B45595043365F50696E60
:1003C0000D0A000033234B45595043375F50696E87
:1003D0000D0A000045525220434F4D2D2D000000C4
:1003E00010B5044604480068204020B1024804606B
:1003F0002046FFF7A7FF10BD1404014078B503465F
:100400000022E5E0012696400D6805EA0604002C6E
:100410007DD04D68022D02D04D68122D13D1D60823
:1004200003F1200555F826005507EE0E0F25B540BF
:10043000A8435607F60E0D69B5402843D60803F1C8
:10044000200545F82600186856000325B540A84346
:100450000D7905F003055600B540284318604D6836
:10046000012D08D04D68022D05D04D68112D02D008
:100470004D68122D13D1986856000325B540A84346
:100480005600CD68B54028439860586801259540CE
:10049000A8430D79C5F300159540284358600D79A0
:1004A00005F00305032D09D1D86A01259540A8431D
:1004B0000D79C5F3C00595402843D862D868560029
:1004C0000325B540A84356008D68B5402843D86041
:1004D0004D6805F08055B5F1805F78D100BF3F4D84
:1004E0002D6E45F001053D4E356635462D6E05F005
:1004F0000105009500BF00BF4FEAB635960855F8D4
:10050000260095072E0F0F25B540A84300E05EE0BA
:10051000B3F1904F01D100251EE0314DAB4201D126
:10052000012519E02F4DAB4201D1022514E02E4DDB
:10053000AB4201D103250FE02C4DAB4201D1042584
:100540000AE02B4DAB4201D1052505E0294DAB4218
:1005500001D1062500E007259607360FB540284350
:10056000254D960845F82600244D2868A0434D687F
:1005700005F48035B5F5803F00D120431F4D28603C
:100580002D1D2868A0434D6805F40035B5F5003FE2
:1005900000D12043194D2D1D28602D1D2868A04332
:1005A0004D6805F48015B5F5801F00D12043134D2B
:1005B000083528602D1D2868A0434D6805F40015F6
:1005C000B5F5001F00D120430C4D0C352860521C9E
:1005D0000D68D540002D7FF415AF78BD00100240A6
:1005E0000004004800080048000C004800100048C3
:1005F00000140048001800480800014000040140B1
:10060000024613690B400BB1012000E00020704747
:1006100042694A40426170470AB1816100E08162EB
:10062000704700000148006870470000000000208B
:1006300002480068401C0149086070470000002023
:1006400010B50024032000F091F8002000F008F815
:1006500008B1012401E000F01BF8204610BD0000A5
:1006600070B504460025094800684FF47A71B0FB64
:10067000F1F6304600F09AFF08B1012504E00022AF
:100680002146501E00F031F8284670BD04000020BD
:1006900008B500BF0D48006E40F001000B49086628
:1006A0000846006E00F00100009000BF00BF00BFD0
:1006B0000846806D40F0805088650846806D00F0E7
:1006C0008050009000BF00BF08BD00000010024035
:1006D00000BF00F01F02012191404209920002F187
:1006E000E022C2F8001100BF70472DE9F05F80469C
:1006F0000D461646002701F0A9F9074639462A4655
:10070000334601F00700C0F1070ABAF1040F02D91D
:100710004FF0040A01E0C0F1070AD14600F1040AD3
:10072000BAF1070F02D24FF0000A01E0A0F1030A6C
:10073000D4464FF0010A0AFA09FAAAF1010A0AEAB4
:10074000020A0AFA0CFA4FF0010B0BFA0CFBABF1A0
:10075000010B0BEA030B4AEA0B042146404601F069
:100760007DF900F000B830BCBDE8C09F00BF00F0CC
:100770000702064B19684FF6FF031940044B0B4361
:1007800043EA0221014B196000BF70470CED00E005
:100790000000FA050246B2F5007F2AD11D48006824
:1007A00000F4C060B0F5007F32D01A48006820F431
:1007B000C06040F40070174B18601748006832237F
:1007C0005843164BB0FBF3F0411C00E0491E1148A2
:1007D000406900F48060B0F5806F01D10029F5D147
:1007E0000C48406900F48060B0F5806F10D10320A0
:1007F00070470848006800F4C060B0F5806F07D00B
:100800000448006820F4C06040F48060014B186028
:100810000020EDE7007000400400002040420F007F
:100820000248006800F4C06070470000007000409B
:100830002DE9F84304460025A846208800F400600E
:10084000B0F5006F30D1606E80B1B0F5800F13D07D
:10085000B0F5000F03D0B0F5400F15D113E0FB4801
:10086000C06840F48030F949C8600FE00021201DC5
:1008700001F00AF9054609E0002104F1200001F029
:10088000C9F9054602E001E0012500BF00BF55B9E6
:10089000EE488830006820F44000616E0843EB4960
:1008A000C1F8880000E0A846208800F48050B0F528
:1008B000805F30D1A06E80B1B0F1807F13D0B0F1F5
:1008C000007F03D0B0F1407F15D113E0DF48C0684E
:1008D00040F48030DD49C8600FE00021201D01F0A8
:1008E000D3F8054609E0002104F1200001F092F957
:1008F000054602E001E0012500BF00BF55B9D3481D
:100900008830006820F04070A16E0843CF49C1F8DC
:10091000880000E0A846206800F40030B0F5003FF1
:1009200077D14FF00009C948806D012121EA10708C
:1009300078B100BFC548806D40F08050C3498865DC
:100940000846806D00F08050009000BF00BF4FF05F
:100950000109BF48006840F48070BD490860FFF796
:1009600061FE074606E0FFF75DFEC01B022801D9C5
:10097000032505E0B648006800F480700028F2D036
:1009800000BF85BBB1489030006800F44076D6B116
:10099000D4F88000B04216D0AC489030006820F403
:1009A0004076AA48D0F8900040F48030A749C1F8BA
:1009B00090000846D0F8900020F48030C1F89000F4
:1009C0000846C0F8906006F00100A8B1FFF72AFEC3
:1009D000074609E0FFF726FEC01B41F28831884236
:1009E00002D9032507E017E098489030006800F02E
:1009F00002000028EED000BF65B99448903000682E
:100A000020F44070D4F8801008439049C1F8900059
:100A100003E00CE0A84600E0A846B9F1010F05D1BB
:100A20008A48806D20F080508849886500BF207812
:100A300000F0010048B185488830006820F00300CC
:100A4000A16B08438149C1F88800207800F00200BA
:100A5000022809D17D488830006820F00C00E16B45
:100A600008437A49C1F88800207800F0040004287F
:100A700009D176488830006820F03000216C0843A6
:100A80007249C1F88800207800F00800082809D1D0
:100A90006E488830006820F0C000616C08436B49E4
:100AA000C1F88800207800F01000102809D16748AC
:100AB0008830006820F44070A16C08436349C1F895
:100AC0008800207800F02000202809D15F48883075
:100AD000006820F44060E16C08435C49C1F888007C
:100AE000208800F40070B0F5007F09D157488830A5
:100AF000006820F44020E16D08435449C1F88800A3
:100B0000208800F48060B0F5806F09D14F488830AC
:100B1000006820F44010216E08434C49C1F8880059
:100B2000207800F04000402809D14848883000680B
:100B300020F44050216D08434449C1F888002078D2
:100B400000F08000802809D140488830006820F4F7
:100B50004040616D08433D49C1F88800208800F499
:100B60008070B0F5807F09D138488830006820F463
:100B70004030A16D08433549C1F88800206800F471
:100B80000020B0F5002F1FD130488830006820F0D9
:100B90004060E16E08432D4988310860E06EB0F195
:100BA000006F06D12948C06840F480102749C8600A
:100BB0000AE0E06EB0F1806F06D10121201D00F047
:100BC00063FF054605B1A846206800F48020B0F513
:100BD000802F1FD11D488830006820F04060216FB1
:100BE00008431A4988310860206FB0F1006F06D1C0
:100BF0001648C06840F480101449C8600AE0206FAD
:100C0000B0F1806F06D10121201D00F03DFF0546A7
:100C100005B1A846208800F48040B0F5804F25D16A
:100C20000A488830006820F04050616F0843074947
:100C300088310860606FB0F1805F0BD10221201D08
:100C400000F022FF05468DB1A8460FE000100240DB
:100C500000700040606FB0F1005F07D1022104F125
:100C6000200000F0D7FF054605B1A846208800F413
:100C70000040B0F5004F09D10E48006820F08040D8
:100C8000A16F08430B498839C1F88800206800F437
:100C90008030B0F5803F09D10648006820F0004060
:100CA000E16F084303498839C1F888004046BDE830
:100CB000F8830000881002402DE9F04104460D46FB
:100CC00014B90120BDE8F0815548006800F0070024
:100CD000A8420ED25248006820F00700284350492D
:100CE00008600846006800F00700A84201D0012013
:100CF000E8E7207800F00100002840D06068032871
:100D000006D14848006800F00070D8B90120D9E742
:100D10006068022806D14348006800F4003088B9B2
:100D20000120CFE7606830B93E48006800F002005B
:100D300040B90120C6E73B48006800F4806008B96C
:100D40000120BFE73748806820F00300616808434E
:100D500034498860FFF766FC064608E0FFF762FC4E
:100D6000801B41F28831884201D90320AAE72D482F
:100D7000806800F00C006168B0EB810FEED1207844
:100D800000F00200022807D12648806820F0F00019
:100D9000A1680843234988602148006800F00700E3
:100DA000A8420ED91E48006820F0070028431C49BD
:100DB00008600846006800F00700A84201D0012042
:100DC00080E7207800F00400042807D115488068E7
:100DD00020F4E060E168084312498860207800F060
:100DE0000800082808D10F48806820F46050216965
:100DF00040EAC1000B49886000F044F8094989685D
:100E0000C1F30311084A515C01F01F01C8400749B2
:100E100008600020FFF724FC0746384652E7000030
:100E20000020024000100240B02B00080400002007
:100E300001480068704700000400002000B5FFF77B
:100E4000F7FF05498968C1F30221044A515C01F0AA
:100E50001F01C84000BD000000100240C02B000868
:100E600000B5FFF7E5FF05498968C1F3C221044ACF
:100E7000515C01F01F01C84000BD0000001002409D
:100E8000C02B00082DE9F04100240020DFF800C14C
:100E9000DCF808C00CF00C01DFF8F4C0DCF80CC082
:100EA0000CF0030719B10C291ED1012F1CD1DFF85A
:100EB000E0C0DCF800C00CF0080CBCF1000F06D15B
:100EC000DFF8CCC0DCF894C0CCF3032405E0DFF8F5
:100ED000C0C0DCF800C0CCF30314DFF8B8C05CF885
:100EE000244041B9204606E0042901D12A4802E005
:100EF000082900D129480C2947D1DFF894C0DCF833
:100F00000CC00CF00305DFF888C0DCF80CC0CCF393
:100F1000021C0CF10103012D1FD0022D02D0032D64
:100F20001AD10CE0DFF870C0BCFBF3FCDFF8608086
:100F3000D8F80C80C8F306280CFB08F218E0DFF89C
:100F40005CC0BCFBF3FCDFF84880D8F80C80C8F329
:100F500006280CFB08F20BE000BFB4FBF3FCDFF843
:100F60003080D8F80C80C8F306280CFB08F200BFCC
:100F700000BFDFF81CC0DCF80CC0CCF3416C0CF1F6
:100F8000010C4FEA4C06B2FBF6F0BDE8F081000020
:100F900000100240C82B00080024F40000127A0060
:100FA0002DE9F843044614B90120BDE8F883F84858
:100FB000806800F00C06F648C06800F0030720784F
:100FC00000F01000102875D11EB10C2E74D1012F25
:100FD00072D1EF48006800F0020018B1A06908B9AA
:100FE0000120E2E7EA48216A006800F0080020B129
:100FF000E748006800F0F00005E0E548943000683C
:1010000000F47060000981421FD9206A00F0B4FE2C
:1010100008B10120C9E700BFDD48006840F00800C2
:10102000DB4908600846006820F0F000216A0843A8
:10103000D749086000BF0846406820F47F40E16956
:1010400040EA0120D24948601EE000BFD048006855
:1010500040F00800CE4908600846006820F0F00023
:10106000216A0843CA49086000BF0846406820F466
:101070007F40E16940EA0120C5494860206A00F0EC
:101080007BFE08B1012090E7FFF7FCFEC0498968AC
:10109000C1F30311BF4A515C01F01F01C840BE49B2
:1010A00008600020FFF7DCFA8046B8F1000F4ED050
:1010B00040467AE74BE0FFE7A06980B3B448006898
:1010C00040F00100B2490860FFF7ACFA054606E0BF
:1010D000FFF7A8FA401B022801D9032065E7AC48B6
:1010E000006800F002000028F2D000BFA8480068A5
:1010F00040F00800A64908600846006820F0F000AB
:10110000216A0843A249086000BF0846406820F4ED
:101110007F40E16940EA01209D49486017E0FFE710
:101120009B48006820F0010099490860FFF77AFAAF
:10113000054606E0FFF776FA401B022801D9032096
:1011400033E79348006800F002000028F2D12078CD
:1011500000F0010000285CD0082E03D00C2E0AD12C
:10116000032F08D18A48006800F4003088B3606813
:1011700078BB012019E700BF6068B0F5803F06D159
:101180008348006840F48030814908601AE0606854
:10119000B0F5A02F0BD17E48006840F480207C4938
:1011A00008600846006840F4803008600AE078482B
:1011B000006820F48030764908600846006820F412
:1011C0008020086000BF606890B1FFF72BFA0546E9
:1011D00007E01EE0FFF726FA401B642801D9032030
:1011E000E3E66B48006800F400300028F2D010E01D
:1011F000FFF718FA054606E0FFF714FA401B6428CB
:1012000001D90320D1E66248006800F400300028CC
:10121000F2D1207800F00200022852D1042E03D02F
:101220000C2E14D1022F12D15948006800F48060AE
:1012300018B1E06808B90120B7E65548406820F0C9
:10124000F850217C40EA01605149486039E0E0688B
:1012500000B34F48006840F480704D490860FFF7C4
:10126000E1F9054606E0FFF7DDF9401B022801D948
:1012700003209AE64648006800F480600028F2D017
:101280004348406820F0F850217C40EA0160404922
:10129000486016E03E48006820F480703C490860D1
:1012A000FFF7C0F9054606E0FFF7BCF9401B02282E
:1012B00001D9032079E63648006800F480600028F0
:1012C000F2D1207800F00800082836D16069D0B14A
:1012D0002F489430006840F001002D49C1F8940077
:1012E000FFF7A0F9054606E0FFF79CF9401B02282E
:1012F00001D9032059E626489430006800F0020026
:101300000028F1D019E022489430006820F0010054
:101310001F49C1F89400FFF785F9054606E0FFF77D
:1013200081F9401B022801D903203EE61848943079
:10133000006800F002000028F1D1207800F00400DD
:10134000042870D14FF000091148806D00F08050E2
:1013500078B900BF0E48806D40F080500C49886518
:101360000846806D00F08050009000BF00BF4FF035
:1013700001090A48006800F48070F0B90748006865
:1013800040F4807005490860FFF74CF905460EE00F
:1013900000100240B02B0008040000200070004044
:1013A000FFF740F9401B022801D90320FDE57C48E6
:1013B000006800F480700028F2D000BFA068012807
:1013C00008D17848006840F0010076499039C1F8AA
:1013D000900021E0A06805280FD17248006840F015
:1013E000040070499039C1F890000846D0F8900088
:1013F00040F00100C1F890000EE06A48006820F05B
:10140000010068499039C1F890000846D0F8900072
:1014100020F00400C1F8900000BFA068A0B1FFF761
:1014200001F9054609E02EE0FFF7FCF8401B41F208
:101430008831884201D90320B7E55A48006800F096
:1014400002000028F0D012E0FFF7ECF8054608E0B3
:10145000FFF7E8F8401B41F28831884201D90320A8
:10146000A3E55048006800F002000028F0D1B9F16F
:10147000010F07D14B489038806D20F080504949CA
:101480009039886500BFA06AF0B30C2E74D0A06AB2
:10149000022853D143489038006820F080704149B9
:1014A00090390860FFF7BEF8054606E0FFF7BAF886
:1014B000401B022801D9032077E53A48903800689C
:1014C00000F000700028F1D1206B401E0101606B1C
:1014D00041EA0021A06B000941EA4040E16A08436B
:1014E000A18F0122C2EB510140EA41514020005D31
:1014F000C2EB500041EA40602A499039C860084672
:10150000006840F0807000E048E008600846C0686D
:1015100040F08070C860FFF785F8054606E0FFF7E9
:1015200081F8401B022801D903203EE51D48903870
:10153000006800F000700028F1D02FE019489038C2
:10154000006820F0807017499039086008460068EC
:1015500000F0205020B90846C06820F00300C860A1
:1015600010489038C068104908400E499039C8604A
:10157000FFF758F8054607E00EE0FFF753F8401B69
:10158000022801D9032010E506489038006800F0D1
:1015900000700028F1D101E0012006E5002004E5FB
:1015A0000070004090100240FFFFEEFE70B5044650
:1015B0002546681EB0F1807F01D301200FE0681E30
:1015C0004FF0E02148610F214FF0FF3000F046FA64
:1015D00000204FF0E021886107200861002070BDE5
:1015E000704770472DE9F04104462068C5692068BE
:1015F00006682068876805F00F08B8F1000F0CD165
:1016000005F0200048B106F0200030B1206E10B186
:101610002046216E8847BDE8F081B8F1000F7FD0E9
:1016200007F0010018B906F49070002878D005F092
:10163000010048B106F4807030B1012021680862D1
:10164000606F40F00100606705F0020048B107F0EC
:10165000010030B1022021680862606F40F0040090
:10166000606705F0040048B107F0010030B10420C4
:1016700021680862606F40F00200606705F00800B2
:1016800060B106F0200010B907F0010030B1082069
:1016900021680862606F40F008006067606F78B38F
:1016A00005F0200038B106F0200020B1206E10B106
:1016B0002046216E8847606F00F0080028B9206836
:1016C000806800F04000402824D1204600F0D0FC83
:1016D0002068806800F04000402817D120688068AA
:1016E00020F0400021688860E06E58B11F48E16E2C
:1016F0008863E06EFEF7E8FD10B1E06E816B88470D
:101700000DE00DE02046FFF76CFF08E02046FFF7F4
:1017100068FF04E02046FFF764FF002060677AE777
:1017200005F4801050B107F4800038B14FF48010F8
:10173000216808622046FFF753FF6CE705F0800040
:1017400040B106F0800028B1606E10B12046616E95
:10175000884760E705F0400030B106F0400018B15E
:10176000204600F097FC56E700BF54E759200008D8
:1017700010B504460CB9012010BDA06900B100E00D
:1017800000BF94F8710028B9002084F8700020464A
:1017900000F02AF8242084F871002068006820F006
:1017A000010021680860204600F086FC012800D175
:1017B000E2E7606A10B1204600F098FB20684068BC
:1017C00020F49040216848602068806820F02A005A
:1017D000216888602068006840F001002168086086
:1017E000204600F0FFFBC7E710B586B00446142181
:1017F00001A8FEF720FD1C492068884232D100BFB5
:101800001A48006E40F48040184908660846006E89
:1018100000F48040009000BF00BF00BF0846C06CCD
:1018200040F00100C8640846C06C00F00100009060
:1018300000BF00BF4FF4C060019002200290002062
:101840000390032004900720059001A94FF09040D9
:10185000FEF7D4FD002211462520FEF746FF252085
:10186000FEF736FF06B010BD003801400010024000
:101870002DE9F84304460D4616461F464FF0000971
:1018800094F87100202855D105B116B90120BDE8A2
:10189000F88300BF94F87000012801D10220F6E718
:1018A000012084F8700000BF00206067212084F8C8
:1018B0007100FEF7B7FE8146A4F85060A4F85260AC
:1018C00021E04B46002280212046009700F03DFE9B
:1018D00008B10320DBE7A068B0F5805F0AD120697A
:1018E00040B9A846B8F80000C0F308002168088590
:1018F000AD1C03E015F8010B21680885B4F852000F
:10190000401EA4F85200B4F852000028D9D14B462A
:10191000002240212046009700F017FE08B1032066
:10192000B5E7202084F8710000BF002084F8700023
:1019300000BFACE70220AAE7704700BFFEE7000047
:1019400000B587B0142102A8FEF775FC00BF2A4835
:10195000C06C40F080002849C8640846C06C00F0A4
:101960008000019000BF00BF00BF0846C06C40F07F
:101970000400C8640846C06C00F00400019000BF79
:1019800000BF00BF0846C06C40F00100C8640846B4
:10199000C06C00F00100019000BF00BF002289155B
:1019A0001648FEF739FEC02002901548039001202A
:1019B000049002A91148FEF721FD4FF480700290B7
:1019C0000120039000200490059002A90B48FEF727
:1019D00015FD4FF48070029002A94FF09040FEF781
:1019E0000DFD002201211720FEF77FFE1720FEF7D4
:1019F0006FFE07B000BD0000001002400008004864
:101A00000000211010B50D480D4908604FF4E13079
:101A1000486000210A488160C16001610C21416178
:101A200000218161C16101620020054948620846C8
:101A3000FFF79EFE08B1FEF746FC10BD00380140DE
:101A40000C00002000BFFEE770470000024800685D
:101A5000C0F30220704700000CED00E010B5002834
:101A600007DA0A07140E054A00F00F031B1FD454AF
:101A700003E00A07130E024A135410BD18ED00E0EC
:101A800000E400E0704700002DE9F04104460F46F5
:101A900000255C48C06800F0030090B15948C06858
:101AA00000F003002168884209D1206838B1554808
:101AB000C068C0F30210401C6168884233D0012521
:101AC00031E02068012804D0022809D003281AD167
:101AD0000DE04C48006800F0020000B9012514E058
:101AE0004848006800F4806000B901250DE04548D1
:101AF000006800F4003028B94248006800F48020F3
:101B000000B9012501E0012500BF00BF5DB9D4E99E
:101B10000010401E41EA00103A49C96821F07301E3
:101B200008433849C860002D68D13648006820F065
:101B3000806034490860FEF775FD064606E0FEF752
:101B400071FD801B022801D9032505E02D4800689E
:101B500000F000600028F2D100BFCDBB6FB9A068D3
:101B60000002E168090940EA414026490969264A1C
:101B7000114008432349086120E0012F0FD1A068DC
:101B80000002218A0122C2EB510140EA41501D4965
:101B900009691E4A114008431A4908610EE0A0680D
:101BA0000002217D0122C2EB510140EA416015494A
:101BB0000969174A11400843124908611148006831
:101BC00040F080600F490860FEF72CFD064607E0F4
:101BD00014E0FEF727FD801B022801D9032505E04C
:101BE0000848006800F000600028F2D000BF2DB95E
:101BF00004480069A1690843024908612846BDE814
:101C0000F081000000100240FF80FDFFFF809FFF79
:101C1000FF80FFF92DE9F04104460F4600255348A7
:101C2000C06800F0030090B15048C06800F00300A5
:101C30002168884209D1206838B14C48C068C0F397
:101C40000210401C6168884233D0012531E02068D1
:101C5000012804D0022809D003281AD10DE04348F6
:101C6000006800F0020000B9012514E03F48006858
:101C700000F4806000B901250DE03C48006800F4E4
:101C8000003028B93948006800F4802000B90125E7
:101C900001E0012500BF00BF5DB9D4E90010401E7E
:101CA00041EA00103149C96821F0730108432F4906
:101CB000C860002D56D12D48006820F080502B4977
:101CC0000860FEF7AFFC064606E0FEF7ABFC801BA3
:101CD000022801D9032505E02448006800F00050DF
:101CE0000028F2D100BF75BB6FB9A0680002E1689F
:101CF000090940EA41401D4949691D4A114008430C
:101D00001A4948610EE0A0680002217C0122C2EB62
:101D1000510140EA416015494969164A114008439A
:101D2000124948611148006840F080500F4908602E
:101D3000FEF778FC064607E0FEF774FC801B0228DD
:101D400002D9032506E00DE00848006800F00050C5
:101D50000028F1D000BF2DB90448406961690843EB
:101D6000024948612846BDE8F081000000100240A9
:101D7000FF80FDFFFF80FFF9F8B5044600262348E9
:101D8000806D00F0805018B1FEF74AFD054616E060
:101D900000BF1E48806D40F080501C498865084691
:101DA000806D00F08050009000BF00BFFEF738FD4E
:101DB00005461648806D20F0805014498865B5F5B9
:101DC000007F07D1802C10D9A02C01D902260CE06D
:101DD00001260AE0802C01D9032606E0802C01D1DF
:101DE000022602E0702C00D101260948006820F08C
:101DF00007003043064908600846006800F0070005
:101E0000B04201D00120F8BD0020FCE700100240E4
:101E100000200240704710B5FEF70AFC10BD00B567
:101E2000B7B0442126A8FEF706FA142121A8FEF730
:101E300002FA84216846FEF7FEF910202690012060
:101E40002C9000202D9060202E900020309026A80D
:101E5000FFF7A6F808B1FEF736FA0F202190002010
:101E60002290239024902590002121A8FEF724FFA2
:101E700008B1FEF728FA0120009000200E90684675
:101E8000FEF7D6FC08B1FEF71EFA4FF40070FEF71D
:101E900081FC08B1FEF717FA37B000BD10480068A2
:101EA00040F470000E4908600E48006840F00100E0
:101EB0000C49086000208860084600680A4908400C
:101EC000084908608814C8600846006820F480202B
:101ED000086000208861C8030149803908607047A4
:101EE00088ED00E000100240FFFFF6EA90F82410B1
:101EF00001F0010139B10168496821F40031826AB9
:101F000011430268516090F8241001F00201022987
:101F100007D10168496821F48031C26A114302681F
:101F2000516090F8241001F00401042907D10168E0
:101F3000496821F48021026B11430268516090F8D6
:101F4000241001F00801082907D10168496821F42B
:101F50000041426B11430268516090F8241001F077
:101F60001001102907D10168896821F48051826B22
:101F700011430268916090F8241001F0200120299B
:101F800007D10168896821F40051C26B11430268CE
:101F9000916090F8241001F04001402913D10168AC
:101FA000496821F48011026C114302685160016C90
:101FB000B1F5801F07D10168496821F4C001426C66
:101FC00011430268516090F8241001F080018029CB
:101FD00007D10168496821F40021826C114302682D
:101FE0005160704738B50446002500206067FEF751
:101FF00019FB05462068006800F0080008280CD18D
:102000006FF07E402B4600224FF4001100902046D6
:1020100000F09BFA08B1032038BD2068006800F08A
:10202000040004280CD16FF07E402B4600224FF4B0
:1020300080010090204600F088FA08B10320EBE709
:10204000202084F8710084F8720000BF002084F81A
:10205000700000BF00BFDFE770B50546AC6A002026
:10206000A4F85A00A4F852002046FFF7BAFA70BD4F
:102070000168096821F4907102681160016889683B
:1020800021F0010102689160202180F87210002186
:102090000166704710B504462068006820F04000D3
:1020A00021680860202084F87100002060662046C6
:1020B000FFF742FC10BD00002DE9F84F04464FF039
:1020C000000910264FF0000B0025002000908246EA
:1020D000F7492068884200D100E000BF2169A0686C
:1020E000084361690843E16940EA01092068006822
:1020F000F049084040EA090021680860206840680B
:1021000020F44050E168084321684860D4F81890F2
:10211000E7492068884202D0206A40EA090920681D
:10212000806820F4306040EA09002168886000BFC0
:10213000E1492068884216D1E048006800F00300B9
:1021400030B1012808D0022804D0032808D105E0C6
:10215000012607E0022605E0042603E0082601E048
:10216000102600BF8CE0D6492068884216D1D3489B
:10217000006800F00C0030B1042808D0082804D012
:102180000C2808D105E0002607E0022605E0042619
:1021900003E0082601E0102600BF71E0C94920686D
:1021A000884216D1C548006800F0300030B11028D0
:1021B00008D0202804D0302808D105E0002607E008
:1021C000022605E0042603E0082601E0102600BFF1
:1021D00056E0BD492068884216D1B848006800F032
:1021E000C00030B1402808D0802804D0C02808D1D1
:1021F00005E0002607E0022605E0042603E00826A5
:1022000001E0102600BF3BE0B0492068884219D1A8
:10221000AA48006800F4407048B1B0F5807F0AD049
:10222000B0F5007F05D0B0F5407F08D105E000266D
:1022300007E0022605E0042603E0082601E0102658
:1022400000BF1DE09A492068884219D19B48006868
:1022500000F4406048B1B0F5806F0AD0B0F5006F6F
:1022600005D0B0F5406F08D105E0002607E0022652
:1022700005E0042603E0082601E0102600BF00BFA9
:1022800000BF8B492068884272D1042E10D003DC35
:102290003EB1022E13D108E0082E0DD0102E0ED123
:1022A0000EE0FEF7CBFD82460DE0DFF824A20AE047
:1022B000FEF7E8FD824606E04FF4004A03E000BF67
:1022C0000120009000BF00BFBAF1000F0AD0606883
:1022D00000EB4000504503D860680003504502D22F
:1022E0000120009025E1042E2ED003DC3EB1022E09
:1022F00051D118E0082E3CD0102E4CD14CE0FEF706
:102300009DFD4FF48071A0FB0131606840081F18EB
:1023100041F10001D4F804C0624600233846FDF7BD
:102320004FFF05463BE0D4F804C04FEA5C000021B3
:10233000684BC71841EB010862460B4638464146D8
:10234000FDF73EFF05462AE0FEF79CFD4FF4807145
:10235000A0FB0130616849085F1840F10001D4F822
:1023600004C0624600233846FDF72AFF054616E002
:1023700022E0D4F804C04FEA5C0000214FF40003CF
:10238000C71841EB010862460B4638464146FDF747
:1023900017FF054603E000BF0120009000BF00BF0B
:1023A000B5F5407F05D3B5F5801F02D22068C56022
:1023B000BFE001200090BCE0E069B0F5004F57D1CC
:1023C000042E28D005DC4EB1012E11D0022E36D1BC
:1023D00018E0082E29D0102E31D131E0FEF72EFD65
:1023E0004000616800EB5100B0FBF1F085B22AE0DB
:1023F000FEF736FD4000616800EB5100B0FBF1F0E4
:1024000085B220E03449606801EB50006168B0FBA0
:10241000F1F085B217E0FEF735FD4000616800EB92
:102420005100B0FBF1F085B20DE04FF480316068EF
:1024300001EB50006168B0FBF1F085B203E000BF32
:102440000120009000BF00BF102D0ED3B5F5803FD6
:102450000BD24FF6F07005EA000BC5F342004BEAD1
:10246000000B2068C0F80CB063E00120009060E031
:10247000042E3CD005DC4EB1012E10D0022E49D1E5
:102480002CE0082E3CD0102E44D144E0FEF7D6FCC0
:10249000616800EB5100B0FBF1F085B23EE0FEF761
:1024A000DFFC616800EB5100B0FBF1F085B235E074
:1024B00000800040F369FFEF0038014088100240BF
:1024C0000044004000480040004C004000500040E4
:1024D0000024F400000024F40048E8011849606872
:1024E00001EB50006168B0FBF1F085B216E0FEF739
:1024F000C9FC616800EB5100B0FBF1F085B20DE062
:102500004FF40041606801EB50006168B0FBF1F0EE
:1025100085B203E000BF0120009000BF00BF102D76
:1025200005D3B5F5803F02D22068C56001E00120E7
:102530000090002020666066009800F003B800005C
:102540000024F40018BCBDE8E08F2DE9F0410446FA
:102550000D4617469846069E21E0701CF8B12EB134
:10256000FEF760F8A0EB0800B04218D920680068B8
:1025700020F4D070216808602068806820F0010095
:1025800021688860202084F8710084F8720000BF00
:10259000002084F8700000BF0320BDE8F0812068AF
:1025A000C0692840A84201D1012000E00020B842C3
:1025B000D3D00020F1E7000010B50248FFF712F871
:1025C00010BD00000C00002000BFFEE70FB4054B5B
:1025D00010B503A9044A029800F018F810BC5DF881
:1025E00014FB0000752A00080800002002E008C85B
:1025F000121F08C1002AFAD170477047002001E07D
:1026000001C1121F002AFBD1704700002DE9FF4FC6
:102610008DB00F460546002606E025280BD0DDE9E3
:102620000F1290476D1C761C28780028F5D111B048
:10263000304600F0F3B90024A246A1460122EC493D
:1026400000E0044315F8013F203B02FA03F0084282
:10265000F7D128782A2810D06FF02F022878A0F11F
:102660003001092914D80AEB8A0102EB410144F038
:10267000020400EB010A6D1CF0E701CF5FEA000ADB
:1026800003D544F40054CAF1000A44F002046D1C5E
:1026900028782E2817D115F8010F44F004042A28B1
:1026A0000ED06FF02F022878A0F1300109290AD846
:1026B00009EB890102EB410100EB01096D1CF2E716
:1026C00057F8049B6D1C28786C280FD006DC4C282A
:1026D00017D068280DD06A2814D104E0742810D0CF
:1026E0007A280FD10DE044F400140AE044F4801479
:1026F00001E044F440146978814202D104F5801469
:102700006D1C6D1C2A786E2A1FD00CDC632A31D018
:1027100004DC002A8BD0582A11D1A3E0642A68D0A7
:10272000692A0CD165E0732A2ED004DC6F2A73D09D
:10273000702A04D19BE0752A6FD0782A6ED010469B
:10274000DDE90F129047761C50E1C4F302500228D5
:1027500006D0032809D0042801CF09D0066045E13E
:1027600001CFF117C0E9006140E101CF06803DE1F2
:1027700006703BE117F8040B8DF8000000208DF87F
:102780000100EB46012003E057F804BB4FF0FF3097
:1027900061074FF0000102D40DE008F10101884605
:1027A00049450FDA8045F8DB1BF808100029F4D101
:1027B00008E008F1010188468142FADB1BF80810A5
:1027C0000029F6D1DDE90F23AAEB08008146214656
:1027D00000F039F9304400EB080604E0DDE90F129F
:1027E0001BF8010B9047B8F10108F7D22146484683
:1027F000F7E00A21C4F302534FF0000B0891022BBB
:1028000004D001CFC117032B09D00AE0FF1D27F028
:102810000707F7E8020108E032E01FE020E000B21D
:10282000C117042B01D140B2C117031E71F100037F
:1028300007DA4FF0000CD0EB0C006CEB01012D23FC
:1028400002E0230504D52B238DF82430012303E077
:10285000E30701D02023F7E7984658E00A2110E06B
:1028600010210EE010204FF0000B08900CE010211A
:102870004FF0000B44F004044FF00809089103E006
:1028800008214FF0000B0891C4F30253022B04D02F
:1028900001CF0021032B06D006E0FF1D27F007071C
:1028A000F7E8020103E080B2042B00D1C0B24FF080
:1028B000000823072BD5702A07D0DDF820C08CF044
:1028C000100C5CEA0B0C05D00EE040238DF8243090
:1028D000012308E050EA010306D030238DF82430AC
:1028E0008DF8252002239846DDF820C08CF0080CD6
:1028F0005CEA0B0C0BD150EA010301D1630706D54A
:1029000030238DF824304FF00108A9F10109582A2D
:1029100004D038A20B9208AA0A920BE03AA2F9E777
:102920005B46089AFDF74CFC0B9B9B5C0A9A521E77
:102930000A92137050EA0102F2D10A98ADEB00003E
:1029400000F1200B600702D524F4803401E04FF041
:102950000109D94502DDA9EB0B0000E0002000EBE6
:102960000B0141440890AAEB010AE00306D4DDE91B
:102970000F232146504600F066F806444FF0000948
:1029800008E009A911F80900DDE90F12904709F1E3
:102990000109761CC145F4DBE0030CD5DDE90F230A
:1029A0002146504600F04FF8064404E0DDE90F12DE
:1029B00030209047761C0899481E08900029F5DCC5
:1029C00008E00A980A990078491C0A91DDE90F127B
:1029D0009047761CBBF10001ABF1010BF1DC214605
:1029E0005046DDE90F2300F01CF806446D1C1BE681
:1029F00009280100303132333435363738396162D5
:102A00006364656600000000303132333435363798
:102A100038394142434445460000000030BCBDE81F
:102A2000C08F2DE9F041044600251E461746880454
:102A300004D405E039462020B0476D1C641EF9D54A
:102A40002846BDE8F0812DE9F041044600251E46E8
:102A50009046C80301D5302700E02027880404D51C
:102A600005E041463846B0476D1C641EF9D528463E
:102A7000BDE8F08113B50C464FF6FF73012269469D
:102A80000548FEF7F5FE00BF034890F871002028C6
:102A9000FAD100981CBD00000C000020FDF7D0FD0D
:102AA000FFF7BDF9FEF74CFFFEF7ACFF00F010F8A2
:102AB00007E0044904A0FFF789FD4FF4FA50FDF741
:102AC00031FCF6E7A82B00080D0A25730D0A00005B
:102AD00010B52DED048BB7EE080AB0EE408A4AE03F
:102AE000BFEE080AF0EE408A30E028EEA80A08EEB1
:102AF000080AF7EE000A30EE609A29EE090A20EE85
:102B0000090A68EEA80A60EE880A60EE880AF0EE0C
:102B1000409A40EEC89AF5EEC09AF1EE10FA0AD843
:102B2000BAEE000A29EE800ABDEEC00A10EE101AB5
:102B300016A2515C00E020210846174900F032F847
:102B40009FED160A38EE800AF0EE408AB7EE080ACA
:102B5000F4EEC08AF1EE10FAC7D30F490D2000F051
:102B600021F80D490A2000F01DF89FED0D0A38EEFE
:102B7000400AB0EE408ABFEE080AB4EEC08AF1EE19
:102B800010FAADDCBDEC048B10BD00002E3A2D3DDB
:102B90002A2325400000000008000020CDCC4C3D39
:102BA000CDCCCC3DFFF766BF6D61696E00000000C3
:102BB00000000000000000000102030406070809ED
:102BC0000000000001020304A0860100400D030084
:102BD000801A060000350C0040420F0080841E0061
:102BE00000093D0000127A000024F40000366E0156
:102BF0000048E801006CDC02182C000800000020EE
:102C00000C000000EC250008242C00080C0000201B
:102C10007C040000FC2500080000000000093D00C5
:042C200000000000B0
:040000050800018965
:00000001FF
